:020000040800F2
:10000000A00D0020B1010008773B00082D37000843
:10001000753B0008BD230008EF3D0008000000000C
:100020000000000000000000000000007B3B000812
:10003000BF23000800000000793B00087D3B00085A
:10004000CB010008CB010008CB010008CB01000860
:10005000CB010008CB010008CB010008CB01000850
:10006000CB010008CB010008CB010008CB01000840
:10007000CB010008CB010008CB010008CB01000830
:10008000CB010008CB010008CB01000800000000F4
:10009000000000000000000000000000CB0100088C
:1000A000CB010008CB010008CB010008CB01000800
:1000B000CB010008CB010008CB010008CB010008F0
:1000C000CB010008CB010008CB010008CB010008E0
:1000D000CB010008CB010008CB01000800000000A4
:1000E000CB010008CB010008CB0100080000000094
:1000F000000000000000000000000000CB0100082C
:1001000000000000CB010008CB010008CB01000873
:1001100000000000000000000000000000000000DF
:10012000CB010008CB010008CB010008CB0100087F
:10013000CB010008000000000000000000000000EB
:10014000000000000000000000000000CB010008DB
:10015000CB010008CB010008CB010008CB0100084F
:10016000CB010008CB0100080000000000000000E7
:10017000000000000000000000000000000000007F
:1001800000000000CB01000800000000000000009B
:10019000CB010008CB010008DFF810D000F036FAE0
:1001A0000048004765430008AFF30080A00D002021
:1001B0000648804706480047FEE7FEE7FEE7FEE701
:1001C000FEE7FEE7FEE7FEE7FEE7FEE7113C00087C
:1001D000990100082DE9F05F0546002092469B46F4
:1001E00088460646814640241BE02846414647464D
:1001F000224600F0B8F953465A46C01A914110D32E
:1002000011461846224600F09FF92D1A67EB0108A7
:100210004F4622460120002100F096F917EB000915
:100220004E41201EA4F10104DFDC484631462A4637
:100230004346BDE8F09F40EA01039B0703D009E075
:1002400008C9121F08C0042AFAD203E011F8013BC2
:1002500000F8013B521EF9D27047D2B201E000F81B
:10026000012B491EFBD270470022F6E710B513465A
:100270000A4604461946FFF7F0FF204610BD30B588
:1002800005462A460B4612F8010B13F8014B08B13C
:10029000A042F8D01CB1002802D06D1CF1E728461E
:1002A00030BDCAB2401E10F8011F8A4202D0002998
:1002B000F9D100207047421C10F8011B0029FBD126
:1002C000801A704730B505460020034600E05B1CED
:1002D000934205D2EC5CC85C201A01D1002CF6D107
:1002E00030BD00000FB400B58DB010A909900B907F
:1002F00000914FF0FF300A9000200C9005480690C6
:10030000054807906A4609A80F9900F051F90DB009
:100310005DF814FBCD050008EB0500082DE9FF5F33
:100320001D464FF0FF3BD5E9014691465F464FF031
:100330000008A9697F1C01988847296A8246884776
:100340000028F6D1BAF1FF3F0CD024F4C064002E8F
:1003500019DD600614D5BAF12B0F09D0BAF12D0FB3
:100360000ED103E0584604B0BDE8F09F44F4806429
:10037000A9697F1C01988847761E8246002E02DDFF
:10038000BAF1300F03D0B9F1000F26D032E0A969DD
:10039000761E44F400747F1C019888478246002E24
:1003A00005DDBAF1780F06D0BAF1580F03D0B9F1D4
:1003B000000F10D01EE0B9F1000F02D0B9F1100FFC
:1003C00018D1A969761E24F400747F1C019888470F
:1003D0008246102002E0082000E00A20814609E061
:1003E00008FB0908A969761E44F400747F1C019873
:1003F00088478246002E05DD4946504600F0C3F886
:100400000028EDDAE96901988847A00502D46FF069
:100410000100A8E7E00725D1600613D5600502D5E5
:10042000C8F1000000E0404629680A1D2A600968FA
:10043000220501D5087015E0220701D5088011E0DA
:1004400008600FE02868011D29600068210502D5B9
:1004500080F8008006E0210702D5A0F8008001E0C6
:10046000C0F8008038467EE72DE9FF5FD2E901A79A
:100470004FF00008916999461446DDF838B04646B9
:1004800001988847054659EA0B0005D009E0A169A3
:10049000761C019888470546216A28468847002827
:1004A000F5D1681C03D05FEACA7005D015E04FF0A3
:1004B000FF3004B0BDE8F09F2068011D2160D0F836
:1004C00000800AE05FEACA7001D108F8015BA16907
:1004D000761C7F1E019888470546002F1ADD681C90
:1004E00018D0B9F1000F0DD0E81705EBD06042111C
:1004F00020F01F0059F822102A1A012090400142D2
:10050000E0D107E0BBF1000FDCD1216A2846884723
:100510000028D7D0E16901988847BBF1000F07D1C7
:10052000002E05DD5FEACA7002D1002188F80010B4
:10053000A068B84203DDBBF1000F03D017B16FF024
:100540000100B6E73046B4E7202A04DB203A00FA7F
:1005500002F1002070479140C2F1200320FA03F31A
:10056000194390407047202A04DB203A21FA02F018
:100570000021704721FA02F3D040C2F120029140DD
:100580000843194670473A2800D2303820F020023C
:10059000412A01D3A2F13700884201D34FF0FF3046
:1005A00070470000026811441378016018467047D4
:1005B000D160044951610449116200211161114661
:1005C00000F03CB8A505000831060008426842B1B9
:1005D000016811F8013B23B1521EC0E90012184610
:1005E00070470121C160881E704742685AB1C368D4
:1005F000016843B983688B4205D0491E521CC0E98B
:100600000012002070474FF0FF307047064C074D36
:1006100006E0E06840F0010394E8070098471034D2
:10062000AC42F6D3FFF7BCFDD0500008F0500008F4
:10063000C0B24FF4F05100F099B900002DE9F34F2A
:100640008BB04FF0000801F10C000C464FF0010B8D
:1006500046460DF1080A0190626901210198904710
:10066000051E2DD0252D2CD0216A8847C0B1626986
:10067000012101989047216A88470028F7D1411E3F
:1006800062690198904700E0761CA1690B98884741
:10069000216A88470028F7D1E1690B988847DBE792
:1006A000A1690B9888470746A84201D1761CD3E779
:1006B000E1690B9888477F1C02D1B8F1000F6FD019
:1006C00047E1002762693D463946019890472A284C
:1006D00004D162690121019890470125DFF88892D1
:1006E0006269012101989047A0F130010A290AD2DC
:1006F0004F45E5DC07EB870100EB4107303FDFD4D6
:1007000045F01005ECE7E90601D46FF000476C28CE
:100710000AD04C2814D0682815D06A280DD0742827
:100720001CD07A281AD01DE06269012101989047F7
:100730006C2802D045F0040514E045F002050DE0F8
:1007400045F020050AE06269012101989047682878
:1007500002D045F0080505E045F400656269012115
:1007600001989047C4E9015765283DD019DC582805
:100770007AD00CDC452837D004DC252826D0412847
:1007800031D131E046282FD047282CD12CE05B28EE
:1007900077D0612828D063287CD0642823D15AE000
:1007A000D1E06F2848D008DC66281DD067281BD010
:1007B000692821D06E2816D127E0702845D07328EB
:1007C00068D0752847D078280DD14DE0A1690B98E5
:1007D0008847054625283FF469AFE1690B988847AB
:1007E0006D1C3FF46AAFB4E023466A466FF0010027
:1007F0000B99AFF300809FE045F040006060A807D0
:1008000023464FF0000236D43EE0E8077FF447AFBE
:100810002068011D21600068290501D506701BE7CD
:10082000290701D5068017E7A90703D5F117C0E905
:10083000006111E706600FE745F040006060A8071F
:1008400023464FF0080216D41EE040F60E0125EABA
:100850000100606016E045F040006060A807234694
:100860004FF00A0207D40FE045F040006060A8078F
:1008700008D5234610226FF001000B99AFF30080DA
:100880005AE007E0234610226FF001000B99FFF7B2
:1008900045FD51E04FF000094F464B46632802D01A
:1008A0005B2807D041E02079C00601D40120A06078
:1008B00001273AE062690121019890475E2805D13D
:1008C0004FF001096269494601989047216939B999
:1008D00000210A46534643F82120491C0829FADB27
:1008E000B0B3216969B9C11700EBD16253110AEBAA
:1008F000830122F01F02821A01200B6890400343FB
:100900000B6062690121019890475D28E8D1B9F137
:10091000000F09D00020514651F82020D24341F861
:100920002020401C0828F7DB02AB224600976FF01E
:1009300001000B99FFF798FD00280CDA401C08D144
:10094000BBF1000F05D04FF0FF300DB0BDE8F08FC8
:10095000FFE74046F9E7E90701D108F1010806443D
:100960004FF0000B78E60000CCCCCC0C7F2801D9EE
:10097000002208E0064A02EB5002C007127800D1BC
:10098000120902F00F020120904008407047000059
:10099000A84F0008464910B54A6822F440324A6020
:1009A0004A6843681A434A6001684A6822F48072C0
:1009B0004A6001684A68036942EA03224A600168A2
:1009C0004A6822F040724A6001684A6883681A43A4
:1009D0004A6001688A6822F400628A6001688A6855
:1009E000C3681A438A60816A6FF07062D1420168FD
:1009F0008A6822F070628A6001688A680CD0836A13
:100A00001A438A6001688A6822F040528A6001684D
:100A10008A68C36A1A4301E022F040528A60016882
:100A20008A6822F002028A6001688A68037E42EACC
:100A300043028A6090F82010002901684A680FD0AC
:100A400042F400624A6001684A6822F460424A60E7
:100A500001684A68174C436A04EB43331A4301E0C8
:100A600022F400624A600168CA6A22F47002CA6213
:100A70000168CA6A838B104C04EB03531A43CA62A1
:100A800001688A6822F400728A6001688A6890F8B6
:100A9000303042EA43228A6001688A6822F4806228
:100AA0008A6001688A68406942EA8020886010BDD7
:100AB0000023014000E0FFFF0000F0FF10B501F04F
:100AC0007DFF044900220860BDE810402021024853
:100AD00001F06FBF940000200000024010B500F04C
:100AE00083FA044601F06AFFA17B09B1C82201E044
:100AF0004FF47A7206490B68C31A934206D3086012
:100B0000BDE810402021034801F04BBF10BD00009C
:100B1000940000200000024010B5034800244471F6
:100B200000F062FA847310BD1000002009B10C2996
:100B300001D91F20704702290ED14FF4C872B0FBB3
:100B4000F2F302FB130262B16422B0FBF2F302FB88
:100B500013020AB1800704D00348084410F8010CBE
:100B600070471D2070470000FE47000802494A698F
:100B7000026089694160704710000020072803D295
:100B8000024951F82000704701A070472C00002056
:100B9000556E6B0070B501F011FF104900244FF441
:100BA000FA63C1E903040B8101220A704A70062529
:100BB00001F114008D7003808270C2700571447160
:100BC0008471C4718C7100F00FFAC474012100208B
:100BD00000F0ECF8BDE87040FFF79EBF1000002069
:100BE0000148407970470000100000202DE9F74FC0
:100BF00029480E469046018961F30F04017861F39C
:100C000017444178807861F31F6407213044B0FBBA
:100C1000F1F201FB120060F3070500271FE0200E30
:100C2000401CC1B261F31F648946C4F30741A0B2FE
:100C30008A468346FFF77AFF48450FD201210AF121
:100C40000100C0B261F31F6460F317440C2805D99A
:100C500061F317440BF1010060F30F047F1CB742EE
:100C6000DDD34FF46160B8FBF0F1B8FBF0F261F353
:100C70000F2500FB12803C21B0FBF1F262F3174517
:100C8000B0FBF1F201FB120060F31F6500980460F5
:100C90004560BDE8FE8F0000100000202DE9F04304
:100CA0008DB00F46002858D0002F56D001AD0BACA8
:100CB0000AAB09AA08A985E81E0005A9009107AB9F
:100CC00006AA30A1FFF70EFB072846D10025364EB5
:100CD0008DF81B508DF81F500DF118082C4600BFE1
:100CE00056F8241003224046FFF7ECFA20B1641CAA
:100CF000E4B2072CF4D3FF24DFF8AC800DF11C091B
:100D00000026A8F1300800BF58F8261003224846F4
:100D1000FFF7D8FA06F1010618B3F6B20C2EF3D39A
:100D20000B98A0F5E061B23917D0B0F5FA6F14D383
:100D30009DB1062C11D8059979B180B22946FFF7EB
:100D4000F5FE0599884208D30898182805D2099815
:100D50003C2802D20A983C2805D300200DB0BDE8FB
:100D6000F083F5B2DCE70B983880BD700598F87019
:100D70003C71089878710998B8710A98F871012047
:100D8000ECE700002B434950534E545054494D4515
:100D90003A253373202533732025752025753A2590
:100DA000753A257520257500780000201822B0FBC3
:100DB000F2F302FB13020448C2703C22B1FBF2F3CF
:100DC00002FB131101717047100000207CB51D4C0F
:100DD000002598B31CA1FFF752FA06002FD01EA1E0
:100DE000FFF74DFA50BB69463046FFF757FF28B36F
:100DF000009860610198A061BDF8000020819DF815
:100E0000020020709DF8030060709DF80400A0703F
:100E10009DF805004FF4616110FB01F09DF806108C
:100E2000C1EB011100EB81009DF80710084420611F
:100E300001F0C4FDE0600120A0717CBDFFE7A57159
:100E40000020FAE7100000202B434950534E545025
:100E500054494D453A000000313937300000000058
:100E60002DE9FC4101F0AAFD164C174AE168401A31
:100E70004FF47A71B0FBF1F021690844B0FBF2F352
:100E8000B0FBF2F102FB1305E0784FF4616210FB56
:100E900002F02279C2EB021200EB82062A46684673
:100EA000FFF7A4FE009860610198A06160790127B6
:100EB00010B9B54203D3677100F096F88773BDE8A7
:100EC000FC8100001000002080510100F0B50200FC
:100ED0004FF064014FF014064FF028044FF00A055C
:100EE0004FF0050307D0D07B012806D0022809D097
:100EF00003280AD108E00020F0BD1E2637240F2564
:100F00000A2302E0142300E03C2492ED000A304F53
:100F100010EE100AF0EE080AB84204DAB3EE061A30
:100F200031EE400A08E010EE100A2A4FB8420DDDFB
:100F3000B3EE0C1A30EE410A20EE200ABDEEC00AD4
:100F400010EE100A00B2C0F1640001B292ED010A85
:100F5000214F10EE100AF0EE000AB84204DA9FEDBD
:100F60001F1A31EE400A08E010EE100A1C4FB8427A
:100F70000BDD9FED1C1A30EE410A20EE200ABDEE7B
:100F8000C00A10EE100A081A01B2108900F030F8F9
:100F90000078572802D0442802D003E0881B00E0E4
:100FA000081B01B2508900F039F80078442802D0BB
:100FB000422802D003E0481B00E0C81A01B2002911
:100FC00001DA002102E0642900DD6421C8B2F0BD2D
:100FD0000000B0410000E04100002042000020423B
:100FE000000082420000824200487047C800002092
:100FF000B0F57A7F01D204487047B0F5E16F01D2B5
:1010000002A0704703A070473C1000085761726E41
:10101000696E670044616E6765720000B0F5E16F4C
:1010200001D204A07047B0F5FA6F01D803A0704751
:1010300004A070474461726B000000004E6F726D37
:10104000616C0000427269676874000038B1012861
:1010500007D0022807D0032807D005A0704706A0B4
:10106000704707A0704708A0704709A070470000AC
:10107000556E6B6E6F776E004175746F00000000E7
:101080005374756479000000536C6565700000004E
:1010900041776179000000000B48B3EE0A0A4FF473
:1010A000966180ED000A9FED090A80ED010A4181F9
:1010B0000021017341738173C17341748174C174E0
:1010C0000348017000F018B8C800002000005C421E
:1010D0000C00002010B5074CE07B401CC0B2E07350
:1010E000032801D90020E0730248FFF7EFFE2074C7
:1010F00010BD0000C80000200F4810B50D4902784F
:101100000E4C002331F81210521CD2B22181027011
:10111000032A00D30370B1F5E16F02D30120A0735D
:1011200003E0B1F57A7F00D2A3730448FFF7CEFE47
:10113000207410BDF84700080C000020C8000020F3
:1011400070B5C0B040F6B8354FF4807600242B4619
:10115000324669460EA000F065FB694611A002F018
:1011600075FE2B4632466946164800F05BFB694621
:1011700015A002F06BFE1BA16846FFF780F820B1B6
:10118000012441F2883001F005FB40B0204670BDDB
:1011900041542B434950534E54504346473D300D24
:1011A0000A000000534E54502064697361626C65FC
:1011B00020726573706F6E73653A0D0A25730D0AA0
:1011C000000000006C500008534E545020636F6EB6
:1011D00066696720726573706F6E73653A0D0A25D4
:1011E000730D0A004F4B000000B599B000B90AA07A
:1011F00001B90BA1034600910CA2602101A802F0E5
:1012000035FE43F698230FA20FA101A800F0BEFA05
:101210001149087019B000BD4F50504F0000000038
:1012200031323334353637380000000041542B4317
:10123000574A41503D222573222C222573220D0A44
:10124000000000004F4B00005749464920434F4ED5
:101250004E45435445440000980000202DE9F84FC6
:101260008B4606005ED0BBF1000F5BD05FF0000440
:101270004FF0000886F800804546474601F09EFB87
:1012800081466423112228A12C4802F0FFF910B3F3
:10129000611C2BA002F0DAFD3AE00A230122694624
:1012A000264802F09BF9D0B9554506D29DF80000BA
:1012B00070556D1CADB2002070552AA13046FEF766
:1012C000DEFF08B1012700E04FB12AA13046FEF74A
:1012D000D6FF20B109E0ABF1010A40F6B83801F0C1
:1012E0006DFBA0EB09014145D7D33246611C22A01A
:1012F00002F0ACFD67B128A13046FEF7C0FF38B957
:1013000027A13046FEF7BBFF10B10120BDE8F88FE2
:10131000641C142C03D24FF4FA6001F03BFAE4B2DF
:10132000142CA5D30020F1E741542B434950534ED0
:10133000545054494D453F0D0A000000B0040020B0
:10134000534E545020617474656D7074202575205F
:101350007472616E736D6974206661696C65640D89
:101360000A0000002B434950534E545054494D45F8
:101370003A0000004F4B0000534E545020617474EB
:10138000656D707420257520726573706F6E73655E
:101390003A0D0A25730D0A0031393730000000007C
:1013A000203230002DE9FF4FADF53B7D1D46DDE9D4
:1013B000C879064600241AB140F2BB184AA002E0E0
:1013C0004FF0500849A0BA90002E53D0BC98002886
:1013D00050D0002D4ED0002F4CD04FF0000B85F890
:1013E00000B0304600F08CF9002844D04FF4807AE9
:1013F00001AB42463146CDF800A0BA9800F082FA1F
:10140000002838D04FF4C078009639A2414641A850
:10141000BC9B02F02BFD0604360C2BD0464529D28E
:10142000334640A26021A1A802F020FDA1A941A05D
:1014300002F00CFD40F6B833524601A9A1A800F015
:10144000F1F9E0B101A93EA002F000FD44A101A81C
:10145000FEF715FF00280ED041AA314641A002F048
:10146000F5FC4FF47A784346324641A9434802F0EE
:101470000DF940B100200DF53F7DBDE8F08F40A093
:1014800002F0E4FCF6E701F099FA06467F1E0FE051
:1014900014230122B9A9394802F0A0F840B9BC428E
:1014A00006D29DF8E4022855641CA4B205F804B0E5
:1014B00001F084FA811B4945EAD3294638A002F09D
:1014C000C5FC4346524601A93CA000F0ABF93FA140
:1014D0002846FEF7D4FE28B940A12846FEF7CFFEE5
:1014E0000028C8D00120C6E753534C005443500095
:1014F00047455420257320485454502F312E310D28
:101500000A486F73743A2025730D0A436F6E6E6537
:101510006374696F6E3A20636C6F73650D0A0D0A10
:101520000000000041542B43495053454E443D2593
:10153000750D0A00415420434D443A2025730000A4
:10154000485454502043495053454E4420726573CB
:10155000706F6E73653A0D0A25730D0A0000000066
:101560003E000000485454502072657175657374D4
:10157000206C656E3A25750D0A257300B0040020B5
:10158000485454502043495053454E44207472618E
:101590006E736D6974206661696C65640D0A000084
:1015A000485454502072617720726573706F6E7367
:1015B000653A0D0A25730D0A0000000041542B43C3
:1015C0004950434C4F53450D0A00000048545450B5
:1015D0002F312E312032303000000000485454505A
:1015E0002F312E3020323030000000000149002021
:1015F000087070479800002000B5D9B000281BD0B3
:1016000003460EA2602140A802F030FC41F2707344
:101610004FF48072694640A800F004F900280BD00E
:101620000AA16846FEF72BFE28B90AA16846FEF714
:1016300026FE002800D0012059B000BD41542B5097
:10164000494E473D222573220D0A00002B50494E7A
:10165000470000004F4B00002DE9F041174AC4B08D
:1016600040AE07CA86E8070000252C4641F28837BD
:101670004FF4807856F824003B464246694600F015
:10168000D1F818B9611C0EA002F0E0FB6A46611C9B
:1016900012A002F0DBFB17A16846FEF7F0FD20B9AF
:1016A00016A16846FEF7EBFD00B10125641CE4B20B
:1016B000032CDFD344B02846BDE8F0810C48000875
:1016C00050494E47202575207472616E736D6974A0
:1016D000206661696C65640D0A00000050494E4740
:1016E00020257520726573706F6E73653A0D0A253B
:1016F000730D0A002B50494E470000004F4B00006D
:1017000070B5C0B006464FF4FA644FF480752346B6
:101710002A4669460DA000F085F840F2DC532A46BF
:1017200069460EA000F07EF823462A4669460FA0BF
:1017300000F078F823462A46694610A000F072F8B7
:101740003046FFF759FF40B0012070BD41542B4394
:1017500049505354415455530D0A000041542B43F2
:101760004950434C4F53450D0A00000041542B4350
:1017700049504D55583D300D0A00000041542B434F
:1017800049504D4F44453D300D0A00002DE9F047CA
:10179000C2B01F46924689460646002401F00EF963
:1017A00005464FF480716846FEF75EFD3046FEF751
:1017B00082FD82B264233146194801F067FF60BBA5
:1017C00023E00A23012240A9154801F007FFF8B9D8
:1017D000FF2C06D29DF800013055641CA4B206F817
:1017E0000480B9F1000004D001466846FEF747FDC9
:1017F00038B9BAF100000BD001466846FEF73FFD4C
:1018000030B1012042B0BDE8F0874FF000086E46CD
:1018100001F0D4F8401BB842D3D30020F2E7000017
:10182000B00400202DE9F843984615460E000746FF
:101830004FF0000414D09DB1A14686F800903946BF
:1018400019A002F003FB3846FEF735FD82B264238F
:101850003946184801F01AFF28B117A002F0F6FA2D
:101860000020BDE8F88301F0A9F807466D1E0FE0DF
:101870000A23012269460F4801F0B0FE40B9AC428C
:1018800006D29DF800003055641CA4B206F80490FE
:1018900001F094F8C11B4145EAD331460CA002F097
:1018A000D5FA0120DDE70000415420434D443A20A1
:1018B00025730000B00400204154207472616E73DF
:1018C0006D6974206661696C65640D0A0000000032
:1018D000415420524553503A0D0A25730D0A000019
:1018E0004FF4FA63002202A102A0FFF74FBF0000ED
:1018F0004F4B000041542B43574D4F44453D310D54
:101900000A0000002DE9F0419AB01C46209F904645
:101910000D4606002FD0002D2DD0002C2BD0002FEF
:1019200029D040F2DC533A4621461EA0FFF77AFF49
:101930004FF4FA7000F02EFFCDE9005833461DA297
:10194000602102A802F092FA42F210733A46214650
:1019500002A8FFF767FF28B11DA12046FEF78FFC04
:1019600048B903E01CA002F071FA04E021A120466E
:10197000FEF785FC18B100201AB0BDE8F0811FA168
:101980002046FEF77CFC50B91DA12046FEF777FCEF
:1019900028B91DA12046FEF772FC0028ECD00120DA
:1019A000EAE7000041542B434950434C4F53450D47
:1019B0000A00000041542B43495053544152543DB6
:1019C000222573222C222573222C25750D0A000056
:1019D0004552524F52000000434950535441525413
:1019E000207472616E736D6974206661696C6564E0
:1019F0000D0A00004641494C000000004F4B00001A
:101A0000434F4E4E45435400414C524541445920AA
:101A1000434F4E4E45435445440000004FF47A7303
:101A2000002202A102A0FFF7B1BE00004F4B000050
:101A300041540D0A0000000030B5C1B0002812D09A
:101A40000A464FF48075014601AB08A00095FFF7E8
:101A500059FF040006D040F2DC532A4601A904A035
:101A6000FFF7E0FE204641B030BD00005443500077
:101A700041542B434950434C4F53450D0A0000003D
:101A800010B54FF40051064800F086FF054C207059
:101A9000607000F093FF60600020A06010BD000047
:101AA000000802400000002010B54FF4005110481B
:101AB00000F072FF044600F081FF0E490A7894425C
:101AC00001D00C7048604A68821A1E2A0CD34A78EA
:101AD000944209D04C7034B18968401AB0F57A7FCD
:101AE00004D3022010BD8860002010BD012010BD6D
:101AF000000802400000002000F016B810B50024D5
:101B0000084800F0C3FD58B90A21064800F068FDF6
:101B100018B9044800F006FD84B2024800F01CFE2B
:101B2000204610BD1404002010B5FFF75DFA0446EE
:101B3000FFF7E4FF60812046FFF7C8F9207410BD6D
:101B400010B5002002F020FD0021BDE8104008463D
:101B500002F094BD70B58CB003A8FFF707F8FFF74B
:101B600043FA0646FFF7ECFF354C0125009594E853
:101B70000E0034A002F026FE0C21002002F07EFDB3
:101B80009DF81000FEF7FAFFBDF80C106422B1FBBF
:101B9000F2F302FB13139DF80F109DF80E20CDE910
:101BA0000021029029A2182105A802F05FF90095F2
:101BB00094E80E0005A802F005FE1821002002F0AE
:101BC0005DFD9DF813109DF81200CDE900019DF810
:101BD000113023A2182105A802F048F9009594E8D5
:101BE0000E0005A802F0EEFD2421002002F046FDC3
:101BF000F07C08B11FA300E01FA321A2182105A8B3
:101C000002F034F9009594E80E0005A802F0DAFD20
:101C10003021002002F032FDFEF7E2FF08B11AA3E6
:101C200000E01AA31AA2182105A802F01FF90095D6
:101C300094E80E0005A802F0C5FD0CB070BD0000D0
:101C40009C4F0008416C61726D00000025303275B8
:101C50002D253032752D253032752025730000007A
:101C6000543A253032753A253032753A253032757E
:101C7000000000004F4B00004641494C00000000AE
:101C800053796E633A2573004F4E00004F4646006D
:101C9000537461743A25730070B588B0FFF7A4F9E6
:101CA0000446FFF74DFF2C4D0126009695E80E00E7
:101CB0002AA002F087FD0C21002002F0DFFC207B2F
:101CC00008B128A300E028A328A2182101A802F047
:101CD000CDF8009695E80E0001A802F073FD1821DA
:101CE000002002F0CBFC607B08B11EA300E01EA325
:101CF00020A2182101A802F0B9F8009695E80E007C
:101D000001A802F05FFD2421002002F0B7FCA07BB7
:101D100008B114A300E014A319A2182101A802F02D
:101D2000A5F8009695E80E0001A802F04BFD3021C1
:101D3000002002F0A3FCE07BFFF788F9034613A222
:101D4000182101A802F092F8009695E80E0001A86B
:101D500002F038FD08B070BD9C4F000844657669FC
:101D6000636500004F4E00004F46460046616E3AE4
:101D7000257300004C696768743A25730000000001
:101D8000416C61726D3A2573000000004D6F64650F
:101D90003A2573002DE9F0432DED028B89B0FFF752
:101DA00023F90446FFF7CCFEDFF8449101250095A6
:101DB000D9E901234FA0D9F8001002F003FD0C214E
:101DC000002002F05BFC94ED000A1821F2EE040AF8
:101DD000B5EEC00AB6EE008AF1EE10FA03AE46A3E5
:101DE00046A7B0EE481A02DB00EE201A01E010EE22
:101DF000201A4FF00A0CBDEEC10A10EE100A00B214
:101E000090FBFCF290FBFCF80CFB180012B20028CF
:101E100001DA404200B2CDE90020029738A23046F4
:101E200002F024F8009599E80E004E4603A802F04F
:101E3000C9FC0C21402002F021FC94ED010A33A2E0
:101E4000182130EE080ABCEEC00A10EE100A83B268
:101E500003A802F00BF8009596E80E0003A802F024
:101E6000B1FC1821002002F009FC2089FFF7C0F81E
:101E70000090238927A2182103A801F0F7FF0095FD
:101E800096E80E0003A802F09DFC2421002002F039
:101E9000F5FB6089FFF7C2F800784E2824D042286D
:101EA00024D01EA0009063891EA2182103A801F06F
:101EB000DDFF009596E80E0003A802F083FC3021B8
:101EC000002002F0DBFB237C18A2182103A801F0FC
:101ED000CDFF009596E80E0003A802F073FC09B050
:101EE000BDEC028BBDE8F08312A0DBE712A0D9E7BE
:101EF0009C4F0008456E7600543A00000000000038
:101F0000257325642E25642573000000483A257545
:101F100025250000473A2575202573004461726B22
:101F2000000000004C3A257520257300533A2575B2
:101F3000000000004E6F72004272690070B588B0F8
:101F4000FFF752F80646FFF7FBFD184D01240094F9
:101F500095E80E0016A002F035FC1021002002F0DA
:101F60008DFB009495E80E0013A002F02BFC2021BD
:101F7000002002F083FB009495E80E0011A002F00F
:101F800021FC3021002002F079FBF07BFFF75EF8A6
:101F9000034610A2182101A801F068FF009495E8FB
:101FA0000E0001A802F00EFC08B070BD9C4F0008A6
:101FB000486F6D6500000000536D61727444657375
:101FC0006B00000053797374656D2052656164790C
:101FD000000000004D6F64653A2573002DE9F0475D
:101FE0008EB0FFF701F8824600F0C4F80446FFF710
:101FF000A7FDDFF8D8904FF00108CDF80080D9E9AF
:10200000012333A0D9F8001002F0DCFB10210020DE
:1020100002F034FB94F83400C0B101AE1825234619
:1020200004F118072CA2092107A801F01FFF3B4665
:102030002BA20A210AA801F019FF0AA8009007ABF9
:1020400029A22946304601F011FF09E094F8350035
:1020500008B127A200E029A2182101A801F006FF7B
:10206000CDF8008099E80E0045464E4601A802F0E2
:10207000A9FB94F8340080B12021002002F0FEFA80
:10208000B4F930301FA2182101A801F0EFFE00952D
:1020900096E80E0001A802F095FB3021002002F026
:1020A000EDFA9AF8120008B118A300E018A31AA2DA
:1020B000182101A801F0DAFE009596E80E0001A8AB
:1020C00002F080FB0EB0BDE8F08700009C4F0008D6
:1020D0005765617468657200252E38730000000032
:1020E000252E3973000000002573202573000000A1
:1020F000436F6E6E204661696C0000004E6F204495
:1021000061746100543A2564430000004F4B0000A5
:102110004641494C00000000576946693A25730062
:1021200010B502F03DFA002002F02EFABDE8104092
:1021300002F0B6BA0521B0FBF1F210B501FB1200B6
:1021400058B101280CD002280DD003280ED0FFF77B
:10215000A3FDBDE8104002F0A3BAFFF7EFFEF8E7D9
:10216000FFF718FEF5E7FFF739FFF2E7FFF7F2FC9C
:10217000EFE7000000487047DC00002010B5362172
:102180000548FEF771F8044800214A1E20F8301F68
:1021900042800171417110BDDC000020F8B51F4D77
:1021A00006004FF0000085F8340025D01CA1304611
:1021B000FEF765F8040000D134461823174A1BA126
:1021C000204601F015FE002817D0144A18231832B3
:1021D000174619A1204601F00BFE00280DD020461D
:1021E0006E4618A1FEF74BF830B1324619A10F30F8
:1021F000FEF778F8012801D00020F8BD00990120F1
:102200000BB22B86811E698685F834003A46034955
:1022100011A001F01BFE0120F8BD0000DC00002031
:1022200022726573756C747322000000226E616DFA
:1022300065223A22000000002274657874223A2256
:10224000000000002274656D7065726174757265BE
:10225000223A220025640000576561746865722087
:102260007061727365643A20636974793D25732CDB
:1022700020746578743D25732C2074656D703D2540
:10228000640D0A00F0B5214CB3B0002084F834008E
:1022900084F835001EA000901FA324A2C02102A82C
:1022A00001F0E4FD30A0FFF7A7F9502133A0FFF7BC
:1022B000C3FB50212CA0FFF7BFFB0125002820D035
:1022C00042F210764FF44077CDE9007604F1360300
:1022D000012202A924A0FFF765F860B92BA001F044
:1022E000B5FDCDE9007604F13603002202A91EA057
:1022F000FFF758F828B105483630FFF74FFF33B0E5
:10230000F0BD84F835500020F9E70000DC00002023
:102310007869616E000000005376505467786B6CEA
:102320004751506A34395743430000002F76332F0A
:10233000776561746865722F6E6F772E6A736F6E42
:102340003F6B65793D2573266C6F636174696F6EB1
:102350003D2573266C616E67756167653D656E2608
:10236000756E69743D6300006170692E73656E69F6
:1023700076657273652E636F6D0000007777772E38
:1023800062616964752E636F6D000000576561744A
:102390006865722053534C207265717565737420A3
:1023A0006661696C65642C207472792054435020F6
:1023B00066616C6C6261636B0D0A0000FEE770473A
:1023C00078B50024009490F83C20012A19D001220D
:1023D00080F83C200A6807230568092A13D9EE68AB
:1023E0000A3A02EB420293409E43EE600B788A6801
:1023F0000A3B03EB43039A400368DD682A43DA6033
:1024000010E0022078BD2E6902EB420293409E4309
:102410002E610B788A6803EB43039A4003681D69B9
:102420002A431A614A681F23072A13D205686E6B74
:10243000521E02EB820293409E436E630A8893B25F
:102440000A79521E02EB820293400268556B2B43BD
:10245000536327E005680D2A12D22E6BD21F02EBC0
:10246000820293409E432E630B790A88DB1F92B24F
:1024700003EB83039A4003681D6B2A431A6311E040
:10248000EE6A0D3A02EB820293409E43EE620B79B4
:102490000A880D3B92B203EB83039A400368DD6A1E
:1024A0002A43DA621B4B0568194A9D420AD10D681E
:1024B000122D07D1556825F400055560556845F47F
:1024C0008005556005689D421DD1134D0B68AB42D8
:1024D00001D0112B17D1536823F480035360536844
:1024E00043F4000353600968A9420CD10B490C4A1C
:1024F0000968B1FBF2F101EB8101490000E0491EDE
:1025000000910029FBD180F83C40002078BD0000FC
:10251000002301400020014012000010B8000020FC
:1025200040420F000068C06C704770B504004FF067
:10253000000503D0206C002610B107E0012070BD1B
:10254000204600F01DF8666484F83C60206CC006EC
:1025500010D4206C20F4885040F002002064204603
:10256000FEF718FA6664206C20F0020040F00100CB
:10257000206400E0012584F83C60284670BD00001E
:1025800010B586B0044614216846FDF76DFE11496A
:10259000206888421BD110480021026842F48072F2
:1025A0000260006800F4807005900B4814380268DF
:1025B00042F001020260006800F001000590032073
:1025C0000090CDE901016946044800F0F5F806B035
:1025D00010BD0000002001404438024000000240CD
:1025E0002DE9F041044600680D4681684FF0000770
:1025F00049050BD58068C00508D5206C40F0200047
:10260000206484F83C700120BDE8F08100F0D6F928
:10261000064613E0681C11D025B100F0CFF9801BED
:10262000A8420BD920680068800707D4206C40F0CE
:102630000400206484F83C700320E5E7206800680B
:102640008007E7D521686FF012000860206C40F425
:10265000007020642068816811F0405F13D1217EF2
:1026600089B9C16A11F4700F02D0806840050AD49C
:10267000206C20F480702064206CC00403D4206C93
:1026800040F0010020640020BEE7000018B50021E2
:10269000009190F83C20012A07D0012280F83C20CC
:1026A00002689368DB0702D011E0022018BD93682E
:1026B00043F001039360244A244B1268B2FBF3F207
:1026C00002EB420200E0521E0092002AFBD1026897
:1026D0009368DB072ED0036C40F20164A34343F4FC
:1026E0008073036453685B0505D5036C23F40053C2
:1026F00043F480530364036CDB0404D5436C23F080
:102700000603436400E0416480F83C1010496FF018
:102710002203136049680068C90602D00D49884247
:1027200010D1816811F0405F0CD1816841F0804187
:10273000816007E0016C41F010010164416C41F0DF
:1027400001014164002018BDB800002040420F0084
:10275000002301400020014090F83C1001290CD0DA
:10276000012180F83C1001688A6822F001028A6029
:1027700001688968C90702D007E002207047016C30
:1027800021F4885141F001010164002180F83C10DE
:102790000846704770B5044600F010F90546601C05
:1027A00002D004480078044400F008F9401BA0421D
:1027B000FAD370BDAC0000202DE9F84FDFF8B8A1C6
:1027C0000022012403254FF00F090AF1040BAAF19E
:1027D000040E00BF0B6804FA02F63340B34273D113
:1027E0000F7907F00307012F01D0022F16D1876858
:1027F0004FEA420805FA08FC27EA0C07D1F80CC09A
:102800000CFA08FC4CEA070CC0F808C04768B7434C
:102810000E79C6F3001696403E4346600E79F643A5
:10282000B6070DD0C768560005FA06FC27EA0C0764
:10283000D1F808C00CFA06FC4CEA070CC0F80CC032
:102840000E7906F00306022E10D1D60800EB86089A
:10285000D8F8206057074FEAD76C09FA0CF7BE4347
:102860000F6907FA0CF73743C8F8207006684FEA7B
:10287000420C05FA0CF7BE430F7907F0030707FA7D
:102880000CF7374307604E6816F4403F6DD03B4E5F
:10289000376847F480473760366822F0030706F44C
:1028A00080460096364E07EB060CDCF80868970762
:1028B0003F0F09FA07F826EA0806DFF8C880404506
:1028C00003D14FF000081EE04FE0DFF8BC80404528
:1028D00002D14FF0010816E0DFF8B080404502D188
:1028E0004FF002080FE0DFF8A880404502D14FF01A
:1028F000030808E0DFF89C80404502D14FF004084F
:1029000001E04FF0070808FA07F848EA0608CCF893
:102910000888DAF800605746D1F804C09E435FEAA1
:10292000CC2C00D51E433E60DBF800605F46D1F83A
:1029300004C09E435FEA8C2C00D51E433E60DEF847
:1029400000607746D1F804C09E435FEA8C3C00D516
:102950001E433E60084F083F3E68D1F804C09E43C6
:102960005FEACC3C00D51E433E60521C102AFFF4A7
:1029700031AFBDE8F88F0000083C01404438024008
:102980000030014000000240000402400008024004
:10299000000C0240001002400069084000D00120F5
:1029A0007047426921EA02030A4043EA0241816119
:1029B00070470AB1816170470904FBE701488068EC
:1029C00070470000AC00002070B5040025D094F8DA
:1029D0003D00002520B984F83C50204600F006FA5E
:1029E000242084F83D002068016821F00101016085
:1029F0002068016841F4004101602068016821F409
:102A00000041016000F050FB4D4A6168914201D8DD
:102A10004C4900E04C49884201D2012070BD4B492D
:102A20002368B0FBF1F15E6826F03F060E435E605E
:102A30006368934206D94FF4967359434FF47A73FF
:102A4000B1FBF3F12368491C1E6A26F03F063143AF
:102A500019626168914210D84900401EB0FBF1F242
:102A6000521CC2F30B02042A01D2042022E0B0FB64
:102A7000F1F0401CC0F30B001CE0A268F2B301EBC4
:102A8000C10303EB0116431EB3FBF6F35B1C43F4D7
:102A900080431B0549D092B301EBC10202EB011147
:102AA000401EB0FBF1F0401CC0F30B0040F480402E
:102AB00040F400402168CA694CF6FF739A43104302
:102AC000C861D4E9071001432068026822F0C002FF
:102AD00011430160D4E9030101432068826848F290
:102AE000FF339A4311438160D4E90501084321680B
:102AF000CA6822F0FF021043C86001E00EE016E051
:102B00002068016841F0010101602564202084F8FB
:102B10003D00256384F83E50002070BD01EB410666
:102B2000431EB3FBF6F35B1CB3E70120C2E701EBE6
:102B30004101401EB0FBF1F0401CC0F30B00B7E7B1
:102B4000A086010080841E0000093D0040420F0065
:102B50002DE9FF4F81B089460446FFF72FFF054658
:102B600094F83D004FF0000820287DD11923012260
:102B700050492046009500F0ADFE002874D194F82D
:102B80003C00012870D0012084F83C0020680168D6
:102B9000C90703D1016841F00101016020680168A3
:102BA00021F400610160242084F83D0000262664A1
:102BB0004148E0624FF0011B20272068016841F482
:102BC000807101600095002259462046049B00F068
:102BD00081FE50B120680068C00502D54FF4007036
:102BE0002064032005B0BDE8F08F216809F0FE00E5
:102BF0000861FFF7E3FE2168054648694969C0F3AB
:102C00004000C1F380214FF0A00A0FE0FFF7D6FE8D
:102C1000411B0498814200D808B984F83DA021687E
:102C200048694969C0F34000C1F3802194F83D2010
:102C3000A02A02D008B90029E8D084F83D702068A5
:102C40004169C943890716D4016841F400710160E4
:102C500020684169806919230122164920460095A0
:102C600000F038FEB8B900E021E084F83D7084F847
:102C70003C600020B6E7016841F400710160216802
:102C80006FF480604861192301220A4920460095AB
:102C900000F020FE08B10120A4E7039808F1010824
:102CA00080458AD384F83D7084F83C60F3E70220C5
:102CB00098E70000020010000000FFFF2DE9FF4F21
:102CC00083B09A46DDE9119793460446DDF84080CB
:102CD000FFF774FE054694F83D0020287FD11923A4
:102CE000012240492046009500F0F4FD002876D1ED
:102CF00094F83C00012872D0012084F83C00206840
:102D00000168C90703D1016841F001010160206831
:102D1000016821F400610160212084F83D00402019
:102D200084F83E0000262664C4F82480A4F82A9083
:102D3000608D20852C48E062CDE9007553465A46E7
:102D40002046049900F00AFD70B930E02A46394661
:102D5000204600F065FE58B1206C042804D120689C
:102D6000016841F400710160012007B0BDE8F08FF7
:102D7000606A216800780861606A401C6062218D89
:102D8000491E89B22185628D521E6285226853696F
:102D9000DB435B070BD469B100781061606A401CAB
:102DA0006062208D401E2085608D401E6085208DD4
:102DB0000028CBD12A463946204600F05FFD002886
:102DC000CAD154F83D0B016841F400710160202024
:102DD00004F81E09E67766770020C6E7FFE70220C1
:102DE000C3E70000020010000000FFFF10B586B02E
:102DF000044614216846FDF737FA144920688842D2
:102E000021D113480021026842F0020202600068EA
:102E100000F0020005904FF4407000901220CDE9C0
:102E20000101032003900420049069460948FFF73C
:102E3000C3FC07481030016841F4001101600068CC
:102E400000F40010059006B010BD000000540040D2
:102E50003038024000040240024881680278114480
:102E600081607047AC0000200B4810B5016841F448
:102E700000710160016841F480610160016841F402
:102E800080710160032000F063F8002000F006F874
:102E900000F024F8002010BD003C024070B50D4D3C
:102EA00004464FF47A712878B1FBF0F00A490968BA
:102EB000B1FBF0F000F0FEFA48B9102C07D2002266
:102EC0002146501E00F024F800206C6070BD0120E7
:102ED00070BD0000AC000020B80000200B4882B09C
:102EE000016841F480410160006800F48040009076
:102EF0000648001F016841F080510160006800F041
:102F000080500090072002B000F022B84438024000
:102F1000F0B40E4B1B680C46C3F30223C3F1070544
:102F2000042D00D90425191D072901D2002300E032
:102F3000DB1E012606FA05F1491E214099409E40FC
:102F4000761E16403143F0BC00F0AABF0CED00E045
:102F5000064900F0070208684FF6FF03184040EAF0
:102F60000220034A10430860704700000CED00E0A7
:102F70000000FA052DE9F0470E46050065D0DFF8A0
:102F80001481D8F80000F7B200F00700B04207D271
:102F900088F80070D8F8000000F00700B04254D163
:102FA00028683D4C810712D5400703D5206840F4BE
:102FB000E05020602878000703D5206840F4604086
:102FC00020602068A96820F0F0000843206028787D
:102FD000C0072DD0304968680839012812D002286E
:102FE00013D0032811D00968890700292DDA216838
:102FF00021F0030101432160FFF7E0FC814641F22B
:10300000883A0EE009688903EFE709688901ECE76F
:10301000FFF7D4FCA0EB0901514502D90320BDE81C
:10302000F0872068696800F00C00B0EB810FEFD1E9
:10303000D8F80010404601F00701B14207D90770E7
:10304000006800F00700B04201D00120E7E72878CF
:10305000400705D52068E96820F4E0500843206067
:103060002878000706D52068296920F4604040EAE6
:10307000C100206000F038F82168084AC1F303114C
:10308000515CC8400649086006480068FFF706FF23
:103090000020C4E7003C02400838024018480008FD
:1030A000B8000020B0000020044805490068096805
:1030B000044AC1F38221515CC8407047B800002027
:1030C0000838024028480008044805490068096893
:1030D000044AC1F34231515CC8407047B800002037
:1030E0000838024028480008154810B5006810F05C
:1030F0000C02144813D04110042A0FD0082A0ED114
:103100000F4C241F2268236802F03F025B0207D5A0
:103110002068C0F38810A0FB010106E0084610BD3E
:103120002168C1F38811A1FB00010023FDF752F8CB
:103130002168C1F30141491C4900B0FBF1F010BD09
:10314000083802400024F4002DE9F84F04006ED046
:103150002078DFF84C93C007A9F104054AD009F1A3
:1031600004000168C1F38101012908D00068C0F39F
:10317000810002280AD1D9F80000400206D528684B
:10318000800337D560680028E1D033E06068B0F58F
:10319000803F10D0B0F5A02F286810D020F48030E8
:1031A0002860286820F4802028606068A8B1FFF7B4
:1031B00005FC06460DE0286840F48030F4E740F452
:1031C00080202860F7E700BFFFF7F8FB801B64282A
:1031D00073D828688003F7D50CE0FFF7EFFB0646AD
:1031E00005E000BFFFF7EAFB801B6428F0D82868E1
:1031F0008003F7D42078DFF8AC8280074FF0000A14
:103200003ED5A748001D016811F00C0F08D00068DA
:10321000C0F3810002280BD1D9F80000400207D486
:103220002868800716D5E068012800D112E033E154
:10323000E068B8B10120C8F80000FFF7BFFB064600
:1032400005E000BFFFF7BAFB801B0228C0D8286842
:103250008007F7D52868216920F0F80040EAC1000E
:1032600028600DE0C8F800A0FFF7A8FB064604E0C0
:10327000FFF7A4FB801B02281FD828688007F7D41B
:103280002078000722D5864F87486169703771B171
:1032900001210160FFF792FB064604E0FFF78EFB79
:1032A000801B022809D838688007F7D50EE0C0F8DF
:1032B00000A0FFF783FB064605E082E0FFF77EFBF8
:1032C000801B02287DD838688007F7D42078400713
:1032D00068D5DFF8CCB100270BF13C0BDBF8000020
:1032E000C0000BD4DBF8001041F08051CBF8001087
:1032F000DBF80000012700F0805000906B4E306832
:10330000C00510D4306840F480703060FFF756FB81
:10331000009005E0FFF752FB0099401A022850D8B0
:103320003068C005F6D55E4EA0686C3601280FD017
:103330000528306810D020F001003060306820F09F
:1033400004003060A068B8B1FFF738FB00900FE0D0
:10335000306840F00100F4E740F004003060F7E727
:10336000FFF72CFB0099411A41F28830814266D860
:1033700030688007F4D50EE0FFF720FB009007E0EF
:10338000FFF71CFB0099411A41F28830814256D860
:1033900030688007F4D42FB1DBF8001021F08051A1
:1033A000CBF80010A069C8B33D49091D0968C1F3F5
:1033B000810102294AD00228504607D0C8F860008F
:1033C00000E03CE0FFF7FAFA04463BE04746C8F865
:1033D0006000FFF7F3FA064605E000BFFFF7EEFADC
:1033E000801B02282BD828688001F7D4D4E9070174
:1033F0000843A16A2E4A490802EB0141626A41EA88
:103400008211084394F82C1040EA0161C9F80010B9
:1034100001203866FFF7D2FA044606E03EE000BF1E
:10342000FFF7CCFA001B022809D828688001F7D5DD
:1034300034E000BFFFF7C2FA001B022802D90320C4
:10344000BDE8F88F28688001F4D427E00128F7D080
:10345000D9F80000E26900F4800191421CD1226A8F
:1034600000F03F01914217D147F6C071626A0140F6
:10347000B1EB821F10D1A26A4FF0FF3300F440314C
:1034800003EB5202B1EB024F06D194F82C1000F07E
:103490007060B0EB016F01D00120D1E70020CFE7D1
:1034A0000438024000004742800E4742007000404E
:1034B0000000FFFF10B5401EB0F1807F01D3012056
:1034C00010BD4FF0E02460610F21601700F0E8FCB0
:1034D0000020A06107202061002010BD70B504000D
:1034E00004D094F84100002510B106E0012070BD21
:1034F00084F84050204600F023F8242084F841004E
:103500002068C16821F40051C160204600F0B0FB82
:103510002068016921F4904101612068416921F02E
:103520002A0141612068C16841F40051C1606564AD
:10353000202084F8410084F842006563002070BDBB
:10354000F0B587B0044614216846FCF78DFE1F4F86
:10355000236800221E490224032507261D48BB427A
:1035600013D11B4B14331F6847F010071F601B68F3
:1035700003F0100305930B6843F001030B60096827
:1035800001F001010591690215E0134FBB421AD108
:103590000F4B10331F6847F400371F601B6803F49C
:1035A000003305930B6843F001030B60096801F0D9
:1035B000010105910C21CDE9001402AB694683E8B5
:1035C0006400FFF7F9F807B0F0BD000000100140FB
:1035D0003038024000000240004400402DE9F84F1E
:1035E000044690F842009A4616460D46202802D01E
:1035F0000220BDE8F88FB5B1AEB100206064222191
:1036000084F842102063FFF7D9F9A6858146E68544
:10361000A0684FF480582027404501D1206920B18F
:103620002E46002529E00120E3E7002625E04B4651
:10363000002220212046CDF800A000F09FFB18B109
:1036400084F842700320D4E726B1A06840451AD020
:1036500038B108E020684068C0F3080025F8020B84
:1036600008E0206978B12068406800F07F0000BF62
:1036700006F8010BE08D401EE085E08D0028D6D1D4
:1036800084F84270B5E720684068F1E72DE9F84317
:10369000044690F84100984616460D46202802D070
:1036A0000220BDE8F88385B17EB10020606421204E
:1036B00084F84100FFF782F9A6848146E684A06879
:1036C0002027B0F5805F02D003E00120E9E7206900
:1036D00010B12E4600250EE000260CE08021204689
:1036E00000F04CFBA8B9C6B116F8010B2168486080
:1036F000E08C401EE084E08C4B464FF00002CDF899
:1037000000800028EAD14FF04001204600F036FB4F
:1037100040B184F841700320C3E735F8020BC0F3D1
:103720000800E3E784F841700020BAE7FEE701688B
:103730004A69D24352050FD46FF480624A61002176
:1037400040F8301F202242738173026942F0040264
:103750000261017301207047002070472DE9F84392
:10376000044600680D46DDE908970168984616464C
:1037700041F4807101604B4600224FF00111204658
:10378000009700F0A7F848B120680068C00502D58E
:103790004FF4007020640320BDE8F883216805F031
:1037A000FE0008613B464A461549204600F0DAF81B
:1037B00088B920684169806900903A4649462046A8
:1037C00000F02EF948B1206C042804D1206801686B
:1037D00041F4007101600120DEE7F5B2B8F1010F9C
:1037E00009D02168300A08613A464946204600F06F
:1037F00017F90028E7D1206805610020CCE7000018
:103800000200010010B50CA000F020FB01246100B3
:103810000A2301220D48FFF79BF918B921460CA095
:1038200000F014FB641CE4B27F2CF0D3BDE8104020
:103830000EA000F00BBB0000493243205363616EC1
:103840002053746172740D0A000000005C040020B3
:103850004932432044657669636520466F756E641E
:103860003A203078253032580D0A00004932432082
:103870005363616E20456E640D0A000070B51646F4
:103880000D4604461EE02046FFF751FF08B1012017
:1038900070BD681C16D0FFF791F8801BA84200D8B5
:1038A00085B920684069C04340070BD5002044F823
:1038B000300F20216173A073216941F02001216143
:1038C0002073E4E720684069C0434007DBD4002050
:1038D00070BD00002DE9F047984617460D46044696
:1038E000C1F30746DDF820902AE000BFB8F1FF3FA2
:1038F00026D0FFF763F8A0EB0901414502D8B8F1E3
:10390000000F1DD12068012E16D0806925EA000025
:103910000004000C12D00020B84211D1002044F85D
:10392000300F20216173A073216941F020012161D2
:1039300020730120BDE8F0874069E7E70120EBE74D
:103940002068012E0AD0806925EA00000004000CDE
:1039500006D00020B842C9D00020EBE74069F3E769
:103960000120F7E72DE9F047984616460D46044634
:103970004FF000094FF0200AC1F3074723E0206809
:103980004069C043400515D42068016841F40071C6
:10399000016021686FF480604861C4F8309084F859
:1039A0003DA084F83E90216C41F00401216484F82C
:1039B0003C9021E0701C06D0FFF700F8A0EB080057
:1039C000B04203D816B1012F1FD021E02068012F8B
:1039D00015D0806925EA00000004000C18D000BF53
:1039E00044F8309F84F80DA084F80E90216941F0CE
:1039F0002001216184F80C900120BDE8F087406926
:103A000025EA00000004000CEAD12068406901E0CA
:103A10002068806925EA00000004000CAFD1ECE7C3
:103A200070B516460D4604461EE02046FFF77FFEA1
:103A300008B1012070BD681C16D0FEF7BFFF801BC7
:103A4000A84200D885B920684069C04300060BD55C
:103A5000002044F8300F20216173A073216941F0E8
:103A6000200121612073E4E720684069C04300061B
:103A7000DBD4002070BD00007FB500241548009401
:103A8000019402941249039401604FF48031C0E91B
:103A900001140461047680F820400F49C0E90A143B
:103AA0000125C561C46080F830404561FEF73DFDE9
:103AB00008B172B6FEE70095CDE9015469460548A4
:103AC000FEF77EFC002801D072B6FEE77FBD000045
:103AD00000200140140400200100000F30B587B021
:103AE00014216846FCF7C0FB1F480024016841F020
:103AF00004010160016801F004010591016841F0D1
:103B000080010160016801F080010591016841F0C8
:103B100001010160016801F001010591016841F0B6
:103B2000020101600068114D00F0020005900022C2
:103B300020212846FEF73DFF4FF4005000904FF43F
:103B40000410CDE9010469460948FEF735FE20203E
:103B500000900120CDE90104694628460394FEF750
:103B60002BFE07B030BD000030380240000002409C
:103B700000080240FEE7FEE770477047FFF76CB9A8
:103B800030B593B030216846FCF76EFB14210CA8C9
:103B9000FCF76AFB1C480024016841F08051016079
:103BA000006800F0805011901848016841F44041CD
:103BB00001600068022500F440401190012003904C
:103BC0001020009506950490CDE907404FF4A870A9
:103BD000099004200A900B906846FFF7B5FA08B1E7
:103BE00072B6FEE70F20CDE90C054FF48050CDE909
:103BF0000E4002210CA81094FFF7BCF9002801D058
:103C000072B6FEE713B030BD40380240007000408D
:103C10000248016841F470010160704788ED00E0DE
:103C200001680C3151E8002F22F4907241E8002322
:103C3000002BF5D10168143151E8002F22F0010268
:103C400041E80023002BF5D1016B012909D101685E
:103C50000C3151E8002F22F0100241E80023002B24
:103C6000F5D1202180F84210002101637047000047
:103C700070B5044600680169E26821F440511143BF
:103C800001612169A068E269084361691143084341
:103C90002168CA6849F20C639A430243CA602068EB
:103CA0004169A26921F440711143416131492068A1
:103CB000884202D03049884202D1FFF705FA01E07C
:103CC000FFF7F2F9E2690023192164253226B2F5E3
:103CD000004F626828D0A0FB0101930F9200FCF70F
:103CE00079FA0146B0FBF5F06FF01802504301EB92
:103CF000800006EB0010B0FBF5F000F0F002B1FB25
:103D0000F5F002EB0012B1FBF5F06FF01803584329
:103D100001EB800006EB0010B0FBF5F000F00F00A7
:103D200021681044886070BDA0FB010192185B41BE
:103D3000FCF750FA0146B0FBF5F00201B1FBF5F0DB
:103D40006FF01803584301EB800006EBC000B0FB96
:103D5000F5F000F0F80002EB4002B1FBF5F058433B
:103D600001EB800006EBC000B0FBF5F000F00700AF
:103D7000D6E7000000100140001401402DE9F8438F
:103D8000984617460D460446089E24E0701C22D033
:103D9000FEF714FEA0EB0800B0421AD8CEB120689E
:103DA000C168490717D5802D15D0402D13D0016863
:103DB000C94309070FD401680025406800902046D8
:103DC000FFF72EFF0820606484F840500120BDE812
:103DD000F8830320FBE72068006835EA000004D080
:103DE0000020B842D2D00020F1E70120F9E7FEE739
:103DF0002DE9F0411D4616460F4628B327B31EB3E2
:103E000015B34FF0000886F800803946FCF737FA02
:103E1000040019D03846FCF74EFA0719222138461B
:103E2000FCF73FFA00280DD0C01B84B2AC4201D38E
:103E30006D1EACB2224639463046FCF7FCF906F856
:103E400004800120BDE8F0810020FBE70FB4054BA2
:103E500010B503A9044A029800F042F810BC5DF8BE
:103E600014FB00004D430008C40000200FB47CB5D3
:103E70000C0009AD01D0611E00E00021CDE9000178
:103E8000064B6A462946089800F02AF8002C02D012
:103E9000009A002111707CBC5DF814FB37430008C8
:103EA0000907090E002804DB00F1E02080F8001467
:103EB000704700F00F0000F1E02080F8141D7047FB
:103EC00002E008C8121F08C1002AFAD170477047E3
:103ED000002001E001C1121F002AFBD17047000041
:103EE0002DE9FF4F8DB00F460546002606E0252838
:103EF0000BD0DDE90F1290476D1C761C2878002846
:103F0000F5D111B03046BDE8F08F0024A246A1469D
:103F10000122E94900E0044315F8013F203B02FA81
:103F200003F00842F7D128782A2810D06FF02F022A
:103F30002878A0F13001092914D80AEB8A0102EB94
:103F4000410144F0020400EB010A6D1CF0E701CFCF
:103F50005FEA000A03D544F40054CAF1000A44F0B1
:103F600002046D1C28782E2817D115F8010F44F093
:103F700004042A280ED06FF02F022878A0F1300117
:103F800009290AD809EB890102EB410100EB01097B
:103F90006D1CF2E757F8049B6D1C28786C280FD035
:103FA00006DC4C2817D068280DD06A2814D104E00C
:103FB000742810D07A280FD10DE044F400140AE0E0
:103FC00044F4801401E044F440146978814202D141
:103FD00004F580146D1C6D1C28786E281ED00CDC36
:103FE000632830D004DC00288BD0582811D19FE002
:103FF000642867D069280CD164E073282DD004DCD4
:104000006F2872D0702804D194E075286ED078287B
:104010006DD0DDE90F129047761C4BE1C4F30250DE
:10402000022806D0032809D0042801CF09D0066051
:1040300040E101CFF117C0E900613BE101CF06800B
:1040400038E1067036E117F8040B8DF80000002007
:104050008DF80100EB46012003E057F804BB4FF058
:10406000FF3061074FF0000102D40DE008F10101BB
:10407000884649450FDA8045F8DB1BF8081000290F
:10408000F4D108E008F1010188468142FADB1BF80F
:1040900008100029F6D1DDE90F23AAEB08008146BC
:1040A000214600F031F9304400EB080604E0DDE978
:1040B0000F121BF8010B9047B8F10108F7D2214607
:1040C0004846F2E00A21C4F302524FF0000B089177
:1040D000022A04D001CFC117032A09D00AE0FF1D2C
:1040E00027F00707F7E8020108E02CE01EE01FE0D8
:1040F00000B2C117042A01D140B2C117021E71F1EA
:10410000000206DA0023D0EB030063EB01012D224D
:1041100002E0220504D52B228DF82420012203E0A1
:10412000E20701D02022F7E7904653E00A210BE096
:10413000102109E010214FF0000B44F004044FF06F
:104140000809089103E008214FF0000B0891C4F31F
:104150000252022A04D001CF0021032A06D006E031
:10416000FF1D27F00707F7E8020103E080B2042AE9
:1041700000D1C0B24FF0000822072BD52A78702A50
:1041800007D0DDF820C08CF0100C5CEA0B0C05D0D9
:104190000EE040228DF82420012208E050EA0103BD
:1041A00006D030238DF824308DF825200222904649
:1041B000089B83F0080353EA0B030BD150EA01027A
:1041C00001D1620706D530228DF824204FF0010876
:1041D000A9F101092A78582A04D038A20B9208AA1A
:1041E0000A920BE03AA2F9E75B46089AFBF7F2FF66
:1041F0000B9B9B5C0A9A521E0A92137050EA0102B2
:10420000F2D10A98ADEB000000F1200B600702D557
:1042100024F4803401E04FF00109D94502DDA9EB17
:104220000B0000E0002000EB0B0141440890AAEBDA
:10423000010AE00306D4DDE90F232146504600F0D1
:1042400063F806444FF0000908E009A911F80900D5
:10425000DDE90F12904709F10109761CC145F4DB35
:10426000E0030CD5DDE90F232146504600F04CF861
:10427000064404E0DDE90F1230209047761C0899CF
:10428000481E08900029F5DC08E00A980A99007891
:10429000491C0A91DDE90F129047761CBBF1000121
:1042A000ABF1010BF1DC21465046DDE90F2300F0B4
:1042B00019F806446D1C21E609280100303132331B
:1042C0003435363738396162636465660000000052
:1042D000303132333435363738394142434445463C
:1042E000000000002DE9F041044600251E46174657
:1042F000880404D405E039462020B0476D1C641EB4
:10430000F9D52846BDE8F0812DE9F04104460025A5
:104310001E469046C80301D5302700E020278804B8
:1043200004D505E041463846B0476D1C641EF9D5FA
:104330002846BDE8F0814A68002A06D00A68531C66
:104340000B6010704868401E4860704713B56423C6
:10435000012269460248FFF799F900981CBD000048
:10436000F8040020FEF780FDFFF70AFCFFF7B6FB1C
:1043700070486F494FF4E13600250160C0E90165DE
:104380000C24C560C0E904548561C561FFF7A6F837
:1043900008B172B6FEE7674867499C380160674913
:1043A000C0E901154FF48041C0E9035145618561C1
:1043B000C5610562FEF708FB08B172B6FEE7FFF7BC
:1043C0005BFB5C485E4948380160C0E90165C56037
:1043D000C0E904548561C561FFF780F808B172B681
:1043E000FEE758A0FFF732FDFFF70CFAFCF754FE8A
:1043F000FCF7D0FBFDF7C2FEFDF7F8F8FDF70EFB6A
:104400000446FCF7F1FD4474FCF7EEFD8574FCF7FF
:10441000EBFDC574FCF7E8FD407C28B3FDF760FABE
:1044200010B300210846FCF7DFFE0446FCF7DCFD74
:104430008474FCF7D9FD807CB0B1FDF70DF9A0B113
:10444000FCF77EFE88B13B4860214830FCF706FF50
:1044500058B138484830FCF7B9FC30B1FCF7C4FD1E
:104460000121C174FDF70EFF02E0FCF7BDFDC5742C
:10447000FCF724FBFDF704FBFDF73EFBFDF750FEC8
:10448000344C2078FDF756FE4FF4FA7740F6B836F4
:10449000FCF7E6FCFCF722FBFEF790FAA168401A55
:1044A000B84209D3FEF78AFAA060FDF73DFB2078F9
:1044B000012801D1FDF73EFEFEF780FAE168401ABF
:1044C000B0420BD3FEF77AFAE060FCF715FE2078D5
:1044D000012801D0042801D1FDF72CFEFDF7E4FAF4
:1044E0006070012802D002280ED009E02078401C1C
:1044F000C0B22070042800D925702078FDF71AFE7C
:104500002078032803D00FE0FCF7E4FDF5E7FEF781
:1045100055FA6168401AB0F57A7F05D3FEF74EFA76
:1045200060602078FDF706FE0A20FEF733F9AFE75A
:1045300000440040F804002000540040A086010020
:104540000010014053797374656D20537461727467
:104550000D0A00009C00002030B580280ED24029B2
:104560000CD2012401F00705AC40064BC90800EB52
:10457000C110012A195C02D0A143195430BD214356
:10458000FBE70000A005002028B1FF224FF4806166
:104590000248FBF762BE0022F8E70000A0050020F9
:1045A00010B56420FEF7F6F8002000F06DF820202A
:1045B00000F0E6F8002000F0E3F8B02000F0E0F8AA
:1045C000C82000F0DDF8002000F0DAF8102000F03C
:1045D000D7F8402000F0D4F8FF2000F045F8A120E3
:1045E00000F0CEF8A62000F0CBF8A82000F0C8F824
:1045F0003F2000F0C5F8A42000F0C2F8D32000F05E
:10460000BFF8002000F0BCF8D52000F0B9F8F02089
:1046100000F0B6F8D92000F0B3F8222000F0B0F88E
:10462000DA2000F0ADF8122000F0AAF8DB2000F04C
:10463000A7F8202000F0A4F88D2000F0A1F81420A5
:1046400000F09EF8012000F01FF80020FFF79CFF0B
:1046500000F026F80348002101804180012101710A
:1046600010BD0000BC00002010B50446812000F001
:1046700087F82046BDE8104000F082B8014A10805B
:1046800051807047BC000020044910B1AF200122C6
:1046900001E0AE2000224A7100F072B8BC00002098
:1046A00070B50C4D002400BF04F1B000C0B200F0A2
:1046B00067F8002000F064F8102000F061F805EBC6
:1046C000C410802100F06EF8641CE4B2082CEBD317
:1046D00070BD0000A00500202DE9FF4F9346009813
:1046E000A0F12008B8F15F0F10D213B113F80860E1
:1046F00000E0CEB2214802883244802A06D88246A1
:104700004088C1F307273844402803D9002004B06B
:10471000BDE8F08F002525E018FB07513BF811900C
:1047200000241CE009FA04F0000409D59AF80210EC
:104730009AF8000029442044C9B2C0B20D9A0BE097
:104740000D98C0B15FF000029AF802109AF80000CC
:1047500029442044C9B2C0B2FFF7FEFE641CB44233
:10476000E0D36D1CAF42D7D8BAF800103144AAF894
:1047700000100098CBE70122E6E70000BC00002013
:1047800001B584B001214FF0FF3204A88DE8070085
:104790000B46002278210248FEF790FA05B000BDD2
:1047A0005C0400200EB54FF0FF3289B28DE807009F
:1047B0000123402278210248FEF780FA0EBD000056
:1047C0005C0400202DE9F8410E4617469846044641
:1047D000079D0CE043463A4631460095FFF77CFFC3
:1047E0002178884202D0C8B2BDE8F881641C2078E4
:1047F0000028EFD1C0B2F7E72003B004D0071F1C98
:104800001F1E1F1E1F1F1E1F1E1F000034500008EA
:1048100050500008B45000080000000000000000E4
:104820000102030406070809000000000102030456
:104830000000000000000000000000000000000078
:104840000000000000100010001000100010001008
:1048500000000010000000000028002800280000D0
:104860000000000000000000000000000024002400
:10487000007C00240048007C004800480000000044
:104880000038005400500038001400540054003820
:104890000010000000200054005800300028005490
:1048A000001400080000000000100028002800107C
:1048B00000340048004800340000000000100010E0
:1048C00000100000000000000000000000000000D8
:1048D0000008001000200020002000200020002000
:1048E0000010000800200010000800080008000860
:1048F00000080008001000200010003800100028F8
:1049000000000000000000000000000000000000A7
:1049100000100010007C00100010000000000000DB
:104920000000000000000000000000000000001077
:10493000001000100000000000000000000000381F
:104940000000000000000000000000000000000067
:104950000000000000000010000000000008000837
:1049600000100010001000100020002000000000C7
:10497000003800440044005400440044004400381F
:104980000000000000100030005000100010001067
:104990000010001000000000003800440044000433
:1049A000000800100020007C0000000000380044D7
:1049B0000004001800040004004400380000000057
:1049C00000080018002800280048007C00080008A3
:1049D00000000000007C004000400078000400045B
:1049E0000044003800000000003800440040007817
:1049F000004400440044003800000000007C000433
:104A0000000800100010002000200020000000001E
:104A1000003800440044003800440044004400389A
:104A2000000000000038004400440044003C000442
:104A300000440038000000000000000000100000EA
:104A40000000000000000010000000000000000056
:104A50000000001000000000000000100010001016
:104A600000000000000C003000400030000C00008E
:104A700000000000000000000000007C0000007C3E
:104A800000000000000000000000000000600018AE
:104A9000000400180060000000000000003800441E
:104AA00000040008001000100000001000000000CA
:104AB00000380044004C0054005C004000400038C6
:104AC0000000000000100028002800280028007CBA
:104AD00000440044000000000078004400440078D6
:104AE0000044004400440078000000000038004406
:104AF000004000400040004000440038000000003A
:104B00000070004800440044004400440048007025
:104B100000000000007C00400040007C004000409D
:104B20000040007C00000000007C00400040007855
:104B300000400040004000400000000000380044F9
:104B400000400040005C00440044003800000000C9
:104B5000004400440044007C0044004400440044FD
:104B600000000000003800100010001000100010BD
:104B700000100038000000000004000400040004DD
:104B80000004000400440038000000000044004815
:104B90000050006000500048004800440000000041
:104BA0000040004000400040004000400040007CC9
:104BB000000000000044006C006C005400440044FD
:104BC00000440044000000000044006400640054FD
:104BD0000054004C004C0044000000000038004429
:104BE0000044004400440044004400380000000039
:104BF0000078004400440044007800400040004039
:104C00000000000000380044004400440044004418
:104C100000540038000400000078004400440044C0
:104C200000780048004800440000000000380044BC
:104C3000004000300008000400440038000000007C
:104C4000007C001000100010001000100010001078
:104C500000000000004400440044004400440044BC
:104C600000440038000000000044004400440028D4
:104C7000002800280010001000000000004400443C
:104C8000005400540054006C00280028000000006C
:104C900000440028002800100010002800280044CC
:104CA000000000000044004400280028001000100C
:104CB0000010001000000000007C0004000800103C
:104CC000001000200040007C0000000000180010D0
:104CD000001000100010001000100010001000184C
:104CE0000020002000100010001000100008000834
:104CF0000000000000300010001000100010001034
:104D0000001000100010003000100028002800449F
:104D10000000000000000000000000000000000093
:104D2000000000000000000000000000000000FE85
:104D30000020001000000000000000000000000043
:104D4000000000000000000000380044003C004467
:104D5000004C003400000000004000400058006497
:104D600000440044006400580000000000000000FF
:104D700000380044004000400044003800000000BB
:104D8000000400040034004C00440044004C003493
:104D9000000000000000000000380044007C0040DB
:104DA0000044003800000000000C0010007C0010DF
:104DB00000100010001000100000000000000000B3
:104DC0000034004C00440044004C003400040078DF
:104DD0000040004000580064004400440044004487
:104DE0000000000000100000007000100010001013
:104DF0000010001000000000001000000070001003
:104E00000010001000100010001000E000400040F2
:104E100000480050006000500048004400000000BE
:104E200000700010001000100010001000100010A2
:104E300000000000000000000078005400540054FE
:104E400000540054000000000000000000580064FE
:104E50000044004400440044000000000000000042
:104E600000380044004400440044003800000000C2
:104E70000000000000580064004400440064005832
:104E800000400040000000000034004C004400449A
:104E9000004C0034000400040000000000580064CE
:104EA0000040004000400040000000000000000002
:104EB00000380044003000080044003800000000C2
:104EC0000020002000780020002000200020001892
:104ED00000000000000000000044004400440044C2
:104EE000004C0034000000000000000000440044BA
:104EF000002800280028001000000000000000002A
:104F0000005400540054006C0028002800000000E9
:104F10000000000000440028001000100028004499
:104F200000000000000000000044004400280028A9
:104F3000001000100010006000000000007C00085D
:104F4000001000200040007C00000000001800104D
:104F500000100010002000200010001000100018A9
:104F600000100010001000100010001000100010C1
:104F700000100010003000100010001000080008A1
:104F8000001000100010003000000000000000744D
:104F9000004C00000000000000000000070A0000B4
:104FA0003048000800000000DDDDDDDDDCBBBBDDDE
:104FB000DDDDDDDDDDDDDDDD9888888888888888B9
:104FC00077777777778888888555555666666666D9
:104FD00066666666666888888333333222222222B8
:104FE000222222222228888D4665620044656300C1
:104FF0005765640054756500417567004672690025
:105000004A756C004A616E004D6F6E004A756E0005
:1050100053756E00536570004D61720041707200EF
:10502000536174004F637400546875004E6F7600CE
:105030004D61790041542B50494E473D226E7470AA
:105040002E616C6979756E2E636F6D220D0A0000FA
:1050500041542B50494E473D226E74702E74656E3C
:1050600063656E742E636F6D220D0A0041542B43ED
:105070004950534E54504346473D312C382C226EF4
:1050800074702E616C6979756E2E636F6D222C229F
:105090006E74702E74656E63656E742E636F6D2210
:1050A0002C22636E2E6E74702E6F72672E636E22CA
:1050B0000D0A000041542B50494E473D22636E2E8D
:1050C0006E74702E6F72672E636E220D0A000000E0
:1050D000F050000800000020C8000000C03E00089A
:1050E000B8510008C8000020D80C0000D03E0008CD
:1050F00001010000000000000000000000000000AE
:105100000101060001000000D007000000000000BF
:105110000000000000000000000000001050000827
:1051200008500008F44F0008F04F0008285000080D
:10513000FC4F00082050000804500008E84F000809
:10514000185000081C500008305000080C5000088F
:1051500000500008F84F00081450000824500008C0
:105160002C500008EC4F00081050000808500008B0
:10517000F44F0008F04F000828500008FC4F0008CA
:1051800020500008000000000000000000000000A7
:10519000000000000000000000000000010000000E
:1051A00010000000000000000024F40000000000D7
:0851B0000000000000000000F7
:040000050800019955
:00000001FF
