:020000040800F2
:1000000048090020B10100083B240008F11F000846
:1000100039240008630D0008B32600080000000022
:100020000000000000000000000000003F24000865
:10003000650D0008000000003D2400084124000870
:10004000CB010008CB010008CB010008CB01000860
:10005000CB010008CB010008CB010008CB01000850
:10006000CB010008CB010008CB010008CB01000840
:10007000CB010008CB010008CB010008CB01000830
:10008000CB010008CB010008CB01000800000000F4
:10009000000000000000000000000000CB0100088C
:1000A000CB010008CB010008CB010008CB01000800
:1000B000CB010008CB010008CB010008CB010008F0
:1000C000CB010008CB010008CB010008CB010008E0
:1000D000CB010008CB010008CB01000800000000A4
:1000E000CB010008CB010008CB0100080000000094
:1000F000000000000000000000000000CB0100082C
:1001000000000000CB010008CB010008CB01000873
:1001100000000000000000000000000000000000DF
:10012000CB010008CB010008CB010008CB0100087F
:10013000CB010008000000000000000000000000EB
:10014000000000000000000000000000CB010008DB
:10015000CB010008CB010008CB010008CB0100084F
:10016000CB010008CB0100080000000000000000E7
:10017000000000000000000000000000000000007F
:1001800000000000CB01000800000000000000009B
:10019000CB010008CB010008DFF810D000F07CF89C
:1001A00000480047CD2B0008AFF30080480900202D
:1001B0000648804706480047FEE7FEE7FEE7FEE701
:1001C000FEE7FEE7FEE7FEE7FEE7FEE7D5240008D0
:1001D000990100082DE9F05F0546002092469B46F4
:1001E00088460646814640241BE02846414647464D
:1001F000224600F041F853465A46C01A914110D3A6
:1002000011461846224600F028F82D1A67EB01081F
:100210004F4622460120002100F01FF817EB00098D
:100220004E41201EA4F10104DFDC484631462A4637
:100230004346BDE8F09FD2B201E000F8012B491E11
:10024000FBD270470022F6E710B513460A46044673
:100250001946FFF7F0FF204610BD202A04DB203AA4
:1002600000FA02F1002070479140C2F1200320FA09
:1002700003F3194390407047202A04DB203A21FA07
:1002800002F00021704721FA02F3D040C2F12002AF
:100290009140084319467047064C074D06E0E06858
:1002A00040F0010394E8070098471034AC42F6D3BD
:1002B000FFF776FF5837000878370008464910B531
:1002C0004A6822F440324A604A6843681A434A60E6
:1002D00001684A6822F480724A6001684A680369CA
:1002E00042EA03224A6001684A6822F040724A608A
:1002F00001684A6883681A434A6001688A6822F480
:1003000000628A6001688A68C3681A438A60816AE9
:100310006FF07062D14201688A6822F070628A6070
:1003200001688A680CD0836A1A438A6001688A6807
:1003300022F040528A6001688A68C36A1A4301E069
:1003400022F040528A6001688A6822F002028A60C4
:1003500001688A68037E42EA43028A6090F82010AE
:10036000002901684A680FD042F400624A600168BF
:100370004A6822F460424A6001684A68174C436A3E
:1003800004EB43331A4301E022F400624A6001683F
:10039000CA6A22F47002CA620168CA6A838B104C6E
:1003A00004EB03531A43CA6201688A6822F400729C
:1003B0008A6001688A6890F8303042EA43228A6095
:1003C00001688A6822F480628A6001688A684069EC
:1003D00042EA8020886010BD0023014000E0FFFF5A
:1003E0000000F0FF10B500F0BDFF044900220860D6
:1003F000BDE810402021024800F0AFBF1C000020E3
:100400000000024010B500F031F9044600F0AAFFE8
:10041000A17B09B1C82201E04FF47A7206490B684A
:10042000C31A934206D30860BDE810402021034858
:1004300000F08BBF10BD00001C0000200000024037
:1004400010B503480024847000F010F9847310BDC7
:10045000100000200349B1F80300497940EA014047
:10046000704700001000002010B500F07BFF084925
:10047000886007480021C01C017041708170012113
:10048000002000F00DF8BDE81040FFF7D9BF0000D4
:100490001000002001488078704700001000002004
:1004A0001822B0FBF2F302FB1302044802703C2254
:1004B000B1FBF2F302FB13114170704710000020F2
:1004C00038B500F04FFF20498A68801A4FF47A72DD
:1004D000B0FBF2F01D4AB0FBF2F302FB13000A7806
:1004E0004FF4616312FB03F24B78C3EB031302EB8F
:1004F00083034FF46162B0FBF2F48DF80040B0FB6F
:10050000F2F402FB14023C24B2FBF4F58DF8015026
:10051000B2FBF4F504FB15248DF80240BDF8002071
:1005200042EA04420092BDF80020A1F803209DF8A1
:1005300002204A718A78012412B9984203D38C7040
:1005400000F094F8847338BD100000208051010041
:10055000F0B502004FF064014FF014064FF028048C
:100560004FF00A054FF0050307D0D07B012806D0D5
:10057000022809D003280AD108E00020F0BD1E2679
:1005800037240F250A2302E0142300E03C2492EDD7
:10059000000A304F10EE100AF0EE080AB84204DAF2
:1005A000B3EE061A31EE400A08E010EE100A2A4FA8
:1005B000B8420DDDB3EE0C1A30EE410A20EE200AEF
:1005C000BDEEC00A10EE100A00B2C0F1640001B224
:1005D00092ED010A214F10EE100AF0EE000AB84227
:1005E00004DA9FED1F1A31EE400A08E010EE100AFF
:1005F0001C4FB8420BDD9FED1C1A30EE410A20EE75
:10060000200ABDEEC00A10EE100A081A01B21089C5
:1006100000F030F80078572802D0442802D003E0D8
:10062000881B00E0081B01B2508900F039F80078FF
:10063000442802D0422802D003E0481B00E0C81A38
:1006400001B2002901DA002102E0642900DD642101
:10065000C8B2F0BD0000B0410000E04100002042FF
:1006600000002042000082420000824200487047A1
:100670004C000020B0F57A7F01D204487047B0F5F5
:10068000E16F01D202A0704703A07047C0060008C6
:100690005761726E696E670044616E676572000033
:1006A000B0F5E16F01D204A07047B0F5FA6F01D840
:1006B00003A0704704A070474461726B0000000003
:1006C0004E6F726D616C0000427269676874000061
:1006D00038B1012807D0022807D0032807D005A089
:1006E000704706A0704707A0704708A0704709A090
:1006F00070470000556E6B6E6F776E004175746FBA
:10070000000000005374756479000000536C656547
:100710007000000041776179000000000A48B3EEE4
:100720000A0A4FF4966180ED000A9FED080A80EDF9
:10073000010A41810021017341738173C17304482F
:10074000017000F019B800004C00002000005C426D
:100750000C00002010B5074CE07B401CC0B2E073D9
:10076000032801D90020E0730248FFF7F1FE20744E
:1007700010BD00004C0000200F4810B50D49027854
:100780000E4C002331F81210521CD2B2218102709B
:10079000032A00D30370B1F5E16F02D30120A073E7
:1007A00003E0B1F57A7F00D2A3730448FFF7D0FECF
:1007B000207410BDC02F00080C0000204C00002049
:1007C00010B54FF40051064800F0BAFD054C2070FA
:1007D000607000F0C7FD60600020A06010BD0000E8
:1007E000000802400000002010B54FF400511048EE
:1007F00000F0A6FD044600F0B5FD0E490A789442CB
:1008000001D00C7048604A68821A1E2A0CD34A78BC
:10081000944209D04C7034B18968401AB0F57A7F9F
:1008200004D3022010BD8860002010BD012010BD3F
:10083000000802400000002000F016B810B50024A7
:10084000084800F0F7FB58B90A21064800F09CFB65
:1008500018B9044800F03AFB84B2024800F050FC9A
:10086000204610BD6000002010B5FFF7FFFE0446D3
:10087000FFF7E4FF60812046FFF76AFE207410BD99
:1008800010B5002002F064FA0021BDE810400846CF
:1008900002F0D8BA70B588B0FFF7DCFD0446FFF768
:1008A000EFFF1F4D0126009695E80E001DA002F0F7
:1008B0006DFB1021002002F0C5FAC4F30741C4F318
:1008C0000720CDE90001E3B218A2182102A801F027
:1008D00001FF009695E80E0002A802F057FB2021C8
:1008E000002002F0AFFA009695E80E0014A002F086
:1008F0004DFB3021002002F0A5FAFFF7CBFD08B137
:1009000012A300E012A313A2182102A801F0E2FE34
:10091000009695E80E0002A802F038FB08B070BD02
:100920004C370008416C61726D00000054696D65C0
:100930003A253032753A253032753A253032750015
:10094000416C61726D3A30303A3031004F4E0000E8
:100950004F4646005374617475733A257300000066
:1009600070B588B0FFF782FE0446FFF789FF2C4D73
:100970000126009695E80E002AA002F007FB0C2144
:10098000002002F05FFA207B08B128A300E028A332
:1009900028A2182101A801F09DFE009695E80E00FE
:1009A00001A802F0F3FA1821002002F04BFA607B54
:1009B00008B11EA300E01EA320A2182101A801F087
:1009C00089FE009695E80E0001A802F0DFFA2421C6
:1009D000002002F037FAA07B08B114A300E014A3B2
:1009E00019A2182101A801F075FE009695E80E00E5
:1009F00001A802F0CBFA3021002002F023FAE07BBC
:100A0000FFF766FE034613A2182101A801F062FE5B
:100A1000009695E80E0001A802F0B8FA08B070BD83
:100A20004C37000844657669636500004F4E00004E
:100A30004F46460046616E3A257300004C69676870
:100A4000743A257300000000416C61726D3A2573A1
:100A5000000000004D6F64653A2573002DE9F043F6
:100A60002DED028B89B0FFF701FE0446FFF708FF6A
:100A7000DFF8449101250095D9E901234FA0D9F869
:100A8000001002F083FA0C21002002F0DBF994ED53
:100A9000000A1821F2EE040AB5EEC00AB6EE008A8A
:100AA000F1EE10FA03AE46A346A7B0EE481A02DBF9
:100AB00000EE201A01E010EE201A4FF00A0CBDEEF5
:100AC000C10A10EE100A00B290FBFCF290FBFCF899
:100AD0000CFB180012B2002801DA404200B2CDE946
:100AE0000020029738A2304601F0F4FD009599E805
:100AF0000E004E4603A802F049FA0C21402002F0F5
:100B0000A1F994ED010A33A2182130EE080ABCEED7
:100B1000C00A10EE100A83B203A801F0DBFD0095B5
:100B200096E80E0003A802F031FA1821002002F026
:100B300089F92089FFF79EFD0090238927A21821BB
:100B400003A801F0C7FD009596E80E0003A802F087
:100B50001DFA2421002002F075F96089FFF7A0FD3D
:100B600000784E2824D0422824D01EA0009063890B
:100B70001EA2182103A801F0ADFD009596E80E0015
:100B800003A802F003FA3021002002F05BF9237C75
:100B900018A2182103A801F09DFD009596E80E000B
:100BA00003A802F0F3F909B0BDEC028BBDE8F083B5
:100BB00012A0DBE712A0D9E74C370008456E76009B
:100BC000543A000000000000257325642E2564259A
:100BD00073000000483A257525250000473A257521
:100BE000202573004461726B000000004C3A2575AB
:100BF00020257300533A2575000000004E6F7200E7
:100C00004272690038B5FFF73BFE134D0124009492
:100C100095E80E0011A002F0B9F91021002002F0B1
:100C200011F9009495E80E000EA002F0AFF9202112
:100C3000002002F007F9009495E80E000CA002F0E5
:100C4000A5F93021002002F0FDF8009495E80E008F
:100C50000BA002F09BF938BD4C370008486F6D655A
:100C600000000000536D6172744465736B000000F6
:100C700053797374656D20526561647900000000DA
:100C80004D6F64653A204175746F000038B5FFF709
:100C9000F7FD134D0124009495E80E0011A002F019
:100CA00075F91021002002F0CDF8009495E80E00AF
:100CB0000EA002F06BF92021002002F0C3F800948E
:100CC00095E80E000CA002F061F93021002002F03E
:100CD000B9F8009495E80E000AA002F057F938BD63
:100CE0004C37000857656174686572004369747910
:100CF0003A205869616E000053756E6E7920323863
:100D00004300000057696E643A204C6F7700000082
:100D100010B502F029F8002002F01AF8BDE81040E2
:100D200002F0A2B80521B0FBF1F210B501FB1200F0
:100D300058B101280CD002280DD003280ED0FFF79F
:100D40000FFEBDE8104002F08FB8FFF75BFFF8E739
:100D5000FFF784FEF5E7FFF799FFF2E7FFF79AFD4B
:100D6000EFE7FEE77047000078B50024009490F8A4
:100D70003C20012A19D0012280F83C200A68072370
:100D80000568092A13D9EE680A3A02EB4202934039
:100D90009E43EE600B788A680A3B03EB43039A405C
:100DA0000368DD682A43DA6010E0022078BD2E690E
:100DB00002EB420293409E432E610B788A6803EB5C
:100DC00043039A4003681D692A431A614A681F2336
:100DD000072A13D205686E6B521E02EB8202934003
:100DE0009E436E630A8893B20A79521E02EB820216
:100DF00093400268556B2B43536327E005680D2A27
:100E000012D22E6BD21F02EB820293409E432E63BE
:100E10000B790A88DB1F92B203EB83039A400368C5
:100E20001D6B2A431A6311E0EE6A0D3A02EB82024F
:100E300093409E43EE620B790A880D3B92B203EB1E
:100E400083039A400368DD6A2A43DA621B4B056814
:100E5000194A9D420AD10D68122D07D1556825F413
:100E600000055560556845F48005556005689D424C
:100E70001DD1134D0B68AB4201D0112B17D1536814
:100E800023F480035360536843F4000353600968FC
:100E9000A9420CD10B490C4A0968B1FBF2F101EBF4
:100EA0008101490000E0491E00910029FBD180F832
:100EB0003C40002078BD000000230140002001409C
:100EC000120000103C00002040420F000068C06C7F
:100ED000704770B504004FF0000503D0206C002669
:100EE00010B107E0012070BD204600F01DF86664D7
:100EF00084F83C60206CC00610D4206C20F488502C
:100F000040F0020020642046FFF7D8F96664206CA8
:100F100020F0020040F00100206400E0012584F888
:100F20003C60284670BD000010B586B00446142110
:100F30006846FFF787F91149206888421BD110489D
:100F40000021026842F480720260006800F4807040
:100F500005900B481438026842F0010202600068F4
:100F600000F00100059003200090CDE901016946E1
:100F7000044800F0F5F806B010BD00000020014064
:100F800044380240000002402DE9F0410446006868
:100F90000D4681684FF0000749050BD58068C005F4
:100FA00008D5206C40F02000206484F83C700120BB
:100FB000BDE8F08100F0D6F9064613E0681C11D0B8
:100FC00025B100F0CFF9801BA8420BD9206800683A
:100FD000800707D4206C40F00400206484F83C7043
:100FE0000320E5E7206800688007E7D521686FF0F7
:100FF00012000860206C40F4007020642068816852
:1010000011F0405F13D1217E89B9C16A11F4700FCC
:1010100002D0806840050AD4206C20F480702064DF
:10102000206CC00403D4206C40F001002064002038
:10103000BEE7000018B50021009190F83C20012A7D
:1010400007D0012280F83C2002689368DB0702D0B9
:1010500011E0022018BD936843F001039360244A15
:10106000244B1268B2FBF3F202EB420200E0521E84
:101070000092002AFBD102689368DB072ED0036C34
:1010800040F20164A34343F48073036453685B0537
:1010900005D5036C23F4005343F480530364036CBD
:1010A000DB0404D5436C23F00603436400E0416491
:1010B00080F83C1010496FF0220313604968006803
:1010C000C90602D00D49884210D1816811F0405FF5
:1010D0000CD1816841F08041816007E0016C41F0F2
:1010E00010010164416C41F001014164002018BD10
:1010F0003C00002040420F0000230140002001403E
:1011000090F83C1001290CD0012180F83C100168B6
:101110008A6822F001028A6001688968C90702D0E2
:1011200007E002207047016C21F4885141F0010171
:101130000164002180F83C100846704770B50446F1
:1011400000F010F90546601C02D004480078044401
:1011500000F008F9401BA042FAD370BD3000002017
:101160002DE9F84FDFF8B8A10022012403254FF044
:101170000F090AF1040BAAF1040E00BF0B6804FA70
:1011800002F63340B34273D10F7907F00307012F02
:1011900001D0022F16D187684FEA420805FA08FCF1
:1011A00027EA0C07D1F80CC00CFA08FC4CEA070C33
:1011B000C0F808C04768B7430E79C6F300169640DA
:1011C0003E4346600E79F643B6070DD0C768560019
:1011D00005FA06FC27EA0C07D1F808C00CFA06FC51
:1011E0004CEA070CC0F80CC00E7906F00306022E7C
:1011F00010D1D60800EB8608D8F8206057074FEAD0
:10120000D76C09FA0CF7BE430F6907FA0CF737439E
:10121000C8F8207006684FEA420C05FA0CF7BE4386
:101220000F7907F0030707FA0CF7374307604E689A
:1012300016F4403F6DD03B4E376847F48047376027
:10124000366822F0030706F480460096364E07EB18
:10125000060CDCF8086897073F0F09FA07F826EA3A
:101260000806DFF8C880404503D14FF000081EE0B3
:101270004FE0DFF8BC80404502D14FF0010816E096
:10128000DFF8B080404502D14FF002080FE0DFF8F0
:10129000A880404502D14FF0030808E0DFF89C80A9
:1012A000404502D14FF0040801E04FF0070808FA6A
:1012B00007F848EA0608CCF80888DAF800605746CC
:1012C000D1F804C09E435FEACC2C00D51E433E609B
:1012D000DBF800605F46D1F804C09E435FEA8C2CC7
:1012E00000D51E433E60DEF800607746D1F804C0AA
:1012F0009E435FEA8C3C00D51E433E60084F083F8A
:101300003E68D1F804C09E435FEACC3C00D51E4342
:101310003E60521C102AFFF431AFBDE8F88F000088
:10132000083C0140443802400030014000000240C7
:101330000004024000080240000C0240001002407D
:101340000069084000D001207047426921EA020389
:101350000A4043EA0241816170470AB181617047E6
:101360000904FBE701488068704700003000002056
:1013700070B5040025D094F83D00002520B984F80C
:101380003C50204600F006FA242084F83D002068F6
:10139000016821F0010101602068016841F4004109
:1013A00001602068016821F40041016000F050FBF9
:1013B0004D4A6168914201D84C4900E04C4988424D
:1013C00001D2012070BD4B492368B0FBF1F15E688A
:1013D00026F03F060E435E606368934206D94FF4E1
:1013E000967359434FF47A73B1FBF3F12368491CA8
:1013F0001E6A26F03F06314319626168914210D897
:101400004900401EB0FBF1F2521CC2F30B02042A49
:1014100001D2042022E0B0FBF1F0401CC0F30B002D
:101420001CE0A268F2B301EBC10303EB0116431EFB
:10143000B3FBF6F35B1C43F480431B0549D092B326
:1014400001EBC10202EB0111401EB0FBF1F0401CA8
:10145000C0F30B0040F4804040F400402168CA69AA
:101460004CF6FF739A431043C861D4E90710014357
:101470002068026822F0C00211430160D4E9030130
:1014800001432068826848F2FF339A431143816028
:10149000D4E9050108432168CA6822F0FF0210431D
:1014A000C86001E00EE016E02068016841F001012B
:1014B00001602564202084F83D00256384F83E50B7
:1014C000002070BD01EB4106431EB3FBF6F35B1C2D
:1014D000B3E70120C2E701EB4101401EB0FBF1F090
:1014E000401CC0F30B00B7E7A086010080841E00FB
:1014F00000093D0040420F002DE9FF4F81B08946B1
:101500000446FFF72FFF054694F83D004FF0000812
:1015100020287DD11923012250492046009500F052
:101520003BFE002874D194F83C00012870D00120C3
:1015300084F83C0020680168C90703D1016841F0C4
:10154000010101602068016821F40061016024202C
:1015500084F83D00002626644148E0624FF0011BFC
:1015600020272068016841F4807101600095002205
:1015700059462046049B00F00FFE50B120680068D9
:10158000C00502D54FF400702064032005B0BDE80B
:10159000F08F216809F0FE000861FFF7E3FE216883
:1015A000054648694969C0F34000C1F380214FF006
:1015B000A00A0FE0FFF7D6FE411B0498814200D835
:1015C00008B984F83DA0216848694969C0F3400022
:1015D000C1F3802194F83D20A02A02D008B9002947
:1015E000E8D084F83D7020684169C943890716D462
:1015F000016841F400710160206841698069192324
:10160000012216492046009500F0C6FDB8B900E059
:1016100021E084F83D7084F83C600020B6E7016862
:1016200041F40071016021686FF480604861192302
:1016300001220A492046009500F0AEFD08B10120C4
:10164000A4E7039808F1010880458AD384F83D7027
:1016500084F83C60F3E7022098E7000002001000E5
:101660000000FFFF2DE9FF4F83B09A46DDE9119797
:1016700093460446DDF84080FFF774FE054694F873
:101680003D0020287FD119230122404920460095A2
:1016900000F082FD002876D194F83C00012872D039
:1016A000012084F83C0020680168C90703D1016863
:1016B00041F0010101602068016821F400610160CE
:1016C000212084F83D00402084F83E000026266456
:1016D000C4F82480A4F82A90608D20852C48E0620C
:1016E000CDE9007553465A462046049900F098FC0F
:1016F00070B930E02A463946204600F0F3FD58B173
:10170000206C042804D12068016841F40071016054
:10171000012007B0BDE8F08F606A21680078086199
:10172000606A401C6062218D491E89B22185628DEC
:10173000521E628522685369DB435B070BD469B193
:1017400000781061606A401C6062208D401E208518
:10175000608D401E6085208D0028CBD12A463946F9
:10176000204600F0EDFC0028CAD154F83D0B01687A
:1017700041F400710160202004F81E09E6776677C5
:101780000020C6E7FFE70220C3E7000002001000C8
:101790000000FFFF10B586B0044614216846FEF72E
:1017A00051FD14492068884221D113480021026864
:1017B00042F002020260006800F0020005904FF45F
:1017C000407000901220CDE9010103200390042015
:1017D000049069460948FFF7C3FC074810300168C8
:1017E00041F400110160006800F40010059006B09B
:1017F00010BD000000540040303802400004024098
:1018000002488168027811448160704730000020EE
:101810000B4810B5016841F400710160016841F4A2
:1018200080610160016841F480710160032000F073
:1018300063F8002000F006F800F024F8002010BD46
:10184000003C024070B50D4D04464FF47A71287883
:10185000B1FBF0F00A490968B1FBF0F000F0FEFAC4
:1018600048B9102C07D200222146501E00F024F85F
:1018700000206C6070BD012070BD000030000020B1
:101880003C0000200B4882B0016841F480410160B7
:10189000006800F4804000900648001F016841F095
:1018A00080510160006800F080500090072002B075
:1018B00000F022B844380240F0B40E4B1B680C46CE
:1018C000C3F30223C3F10705042D00D90425191D14
:1018D000072901D2002300E0DB1E012606FA05F1EC
:1018E000491E214099409E40761E16403143F0BC6F
:1018F00000F00ABF0CED00E0064900F0070208689E
:101900004FF6FF03184040EA0220034A10430860E4
:10191000704700000CED00E00000FA052DE9F047EB
:101920000E46050065D0DFF81481D8F80000F7B244
:1019300000F00700B04207D288F80070D8F8000025
:1019400000F00700B04254D128683D4C810712D501
:10195000400703D5206840F4E05020602878000755
:1019600003D5206840F4604020602068A96820F01A
:10197000F000084320602878C0072DD030496868FF
:101980000839012812D0022813D0032811D0096881
:10199000890700292DDA216821F003010143216024
:1019A000FFF7E0FC814641F2883A0EE009688903BE
:1019B000EFE709688901ECE7FFF7D4FCA0EB090128
:1019C000514502D90320BDE8F0872068696800F01E
:1019D0000C00B0EB810FEFD1D8F80010404601F0B9
:1019E0000701B14207D90770006800F00700B04254
:1019F00001D00120E7E72878400705D52068E9688D
:101A000020F4E050084320602878000706D52068BD
:101A1000296920F4604040EAC100206000F038F8F5
:101A20002168084AC1F30311515CC84006490860A7
:101A300006480068FFF706FF0020C4E7003C0240AC
:101A400008380240C62F00083C0000203400002067
:101A50000448054900680968044AC1F38221515CC1
:101A6000C84070473C00002008380240D62F0008CC
:101A70000448054900680968044AC1F34231515CD1
:101A8000C84070473C00002008380240D62F0008AC
:101A9000154810B5006810F00C02144813D041101E
:101AA000042A0FD0082A0ED10F4C241F2268236865
:101AB00002F03F025B0207D52068C0F38810A0FB4C
:101AC000010106E0084610BD2168C1F38811A1FBA1
:101AD00000010023FEF77EFB2168C1F30141491C90
:101AE0004900B0FBF1F010BD083802400024F400BA
:101AF0002DE9F84F04006ED02078DFF84C93C00732
:101B0000A9F104054AD009F104000168C1F381017B
:101B1000012908D00068C0F3810002280AD1D9F851
:101B20000000400206D52868800337D56068002889
:101B3000E1D033E06068B0F5803F10D0B0F5A02F61
:101B4000286810D020F480302860286820F4802095
:101B500028606068A8B1FFF705FC06460DE028681C
:101B600040F48030F4E740F480202860F7E700BFBD
:101B7000FFF7F8FB801B642873D828688003F7D52B
:101B80000CE0FFF7EFFB064605E000BFFFF7EAFBBE
:101B9000801B6428F0D828688003F7D42078DFF809
:101BA000AC8280074FF0000A3ED5A748001D0168AF
:101BB00011F00C0F08D00068C0F3810002280BD18F
:101BC000D9F80000400207D42868800716D5E068DD
:101BD000012800D112E033E1E068B8B10120C8F873
:101BE0000000FFF7BFFB064605E000BFFFF7BAFBAA
:101BF000801B0228C0D828688007F7D5286821698B
:101C000020F0F80040EAC10028600DE0C8F800A00C
:101C1000FFF7A8FB064604E0FFF7A4FB801B0228A1
:101C20001FD828688007F7D42078000722D5864F70
:101C300087486169703771B101210160FFF792FB3C
:101C4000064604E0FFF78EFB801B022809D838689F
:101C50008007F7D50EE0C0F800A0FFF783FB06462B
:101C600005E082E0FFF77EFB801B02287DD8386804
:101C70008007F7D42078400768D5DFF8CCB100277B
:101C80000BF13C0BDBF80000C0000BD4DBF80010BC
:101C900041F08051CBF80010DBF80000012700F084
:101CA000805000906B4E3068C00510D4306840F40E
:101CB00080703060FFF756FB009005E0FFF752FBA5
:101CC0000099401A022850D83068C005F6D55E4EFB
:101CD000A0686C3601280FD00528306810D020F09D
:101CE00001003060306820F004003060A068B8B1B6
:101CF000FFF738FB00900FE0306840F00100F4E798
:101D000040F004003060F7E7FFF72CFB0099411A20
:101D100041F28830814266D830688007F4D50EE001
:101D2000FFF720FB009007E0FFF71CFB0099411A2A
:101D300041F28830814256D830688007F4D42FB100
:101D4000DBF8001021F08051CBF80010A069C8B377
:101D50003D49091D0968C1F3810102294AD00228C1
:101D6000504607D0C8F8600000E03CE0FFF7FAFA00
:101D700004463BE04746C8F86000FFF7F3FA064622
:101D800005E000BFFFF7EEFA801B02282BD8286879
:101D90008001F7D4D4E907010843A16A2E4A490813
:101DA00002EB0141626A41EA8211084394F82C1067
:101DB00040EA0161C9F8001001203866FFF7D2FA45
:101DC000044606E03EE000BFFFF7CCFA001B022805
:101DD00009D828688001F7D534E000BFFFF7C2FAC0
:101DE000001B022802D90320BDE8F88F2868800173
:101DF000F4D427E00128F7D0D9F80000E26900F414
:101E0000800191421CD1226A00F03F01914217D11A
:101E100047F6C071626A0140B1EB821F10D1A26A1D
:101E20004FF0FF3300F4403103EB5202B1EB024FAD
:101E300006D194F82C1000F07060B0EB016F01D067
:101E40000120D1E70020CFE70438024000004742DC
:101E5000800E4742007000400000FFFF10B5401E9A
:101E6000B0F1807F01D3012010BD4FF0E02460610C
:101E70000F21601700F048FC0020A06107202061BE
:101E8000002010BD70B5040004D094F84100002576
:101E900010B106E0012070BD84F84050204600F0EB
:101EA00023F8242084F841002068C16821F40051FF
:101EB000C160204600F03EFB2068016921F490419A
:101EC00001612068416921F02A0141612068C168EF
:101ED00041F40051C1606564202084F8410084F819
:101EE00042006563002070BD10B586B00446142121
:101EF0006846FEF7A7F913492068884220D11248A6
:101F00000021026842F400320260006800F40030F0
:101F100005900D481038026842F001020260006826
:101F200000F0010005900C2000900220CDE9010195
:101F3000032003900720049069460448FFF710F936
:101F400006B010BD0044004040380240000002408E
:101F50002DE9F843044690F84100984616460D4690
:101F6000202802D00220BDE8F88385B17EB1002090
:101F70006064212084F84100FFF7F4F9A6848146CB
:101F8000E684A0682027B0F5805F02D003E001203E
:101F9000E9E7206910B12E4600250EE000260CE08E
:101FA0008021204600F04CFBA8B9C6B116F8010B01
:101FB00021684860E08C401EE084E08C4B464FF086
:101FC0000002CDF800800028EAD14FF04001204601
:101FD00000F036FB40B184F841700320C3E735F8C8
:101FE000020BC0F30800E3E784F841700020BAE771
:101FF000FEE701684A69D24352050FD46FF480624C
:102000004A61002140F8301F202242738173026927
:1020100042F0040202610173012070470020704702
:102020002DE9F843044600680D46DDE9089701688C
:102030009846164641F4807101604B4600224FF0ED
:1020400001112046009700F0A7F848B12068006809
:10205000C00502D54FF4007020640320BDE8F8836A
:10206000216805F0FE0008613B464A4615492046B6
:1020700000F0DAF888B920684169806900903A4632
:102080004946204600F02EF948B1206C042804D1BE
:102090002068016841F4007101600120DEE7F5B2BB
:1020A000B8F1010F09D02168300A08613A46494663
:1020B000204600F017F90028E7D1206805610020CC
:1020C000CCE700000200010010B50CA000F0F2FA0D
:1020D000012461000A2301220D48FFF70DFA18B907
:1020E00021460CA000F0E6FA641CE4B27F2CF0D389
:1020F000BDE810400EA000F0DDBA000049324320D8
:102100005363616E2053746172740D0A0000000005
:10211000A800002049324320446576696365204663
:102120006F756E643A203078253032580D0A000001
:10213000493243205363616E20456E640D0A0000EE
:1021400070B516460D4604461EE02046FFF751FFC7
:1021500008B1012070BD681C16D0FFF703F9801B81
:10216000A84200D885B920684069C04340070BD514
:10217000002044F8300F20216173A073216941F0E1
:10218000200121612073E4E720684069C0434007D3
:10219000DBD4002070BD00002DE9F04798461746BB
:1021A0000D460446C1F30746DDF820902AE000BF43
:1021B000B8F1FF3F26D0FFF7D5F8A0EB0901414564
:1021C00002D8B8F1000F1DD12068012E16D0806909
:1021D00025EA00000004000C12D00020B84211D102
:1021E000002044F8300F20216173A073216941F071
:1021F0002001216120730120BDE8F0874069E7E7F5
:102200000120EBE72068012E0AD0806925EA000052
:102210000004000C06D00020B842C9D00020EBE733
:102220004069F3E70120F7E72DE9F04798461646A5
:102230000D4604464FF000094FF0200AC1F307474E
:1022400023E020684069C043400515D42068016838
:1022500041F40071016021686FF480604861C4F846
:10226000309084F83DA084F83E90216C41F0040148
:10227000216484F83C9021E0701C06D0FFF772F8CE
:10228000A0EB0800B04203D816B1012F1FD021E007
:102290002068012F15D0806925EA00000004000C99
:1022A00018D000BF44F8309F84F80DA084F80E9039
:1022B000216941F02001216184F80C900120BDE8E2
:1022C000F087406925EA00000004000CEAD120688C
:1022D000406901E02068806925EA00000004000CE4
:1022E000AFD1ECE770B516460D4604461EE0204619
:1022F000FFF77FFE08B1012070BD681C16D0FFF704
:1023000031F8801BA84200D885B920684069C043D5
:1023100000060BD5002044F8300F20216173A07314
:10232000216941F0200121612073E4E720684069C0
:10233000C0430006DBD4002070BD00007FB5002440
:1023400015480094019402941249039401604FF4DB
:102350008031C0E901140461047680F820400F49FF
:10236000C0E90A140125C561C46080F830404561A8
:10237000FEF7AFFD08B172B6FEE70095CDE9015456
:1023800069460548FEF7F0FC002801D072B6FEE76A
:102390007FBD000000200140600000200100000F10
:1023A00030B587B014216846FDF74CFF1F48002464
:1023B000016841F004010160016801F00401059128
:1023C000016841F080010160016801F08001059120
:1023D000016841F001010160016801F0010105910E
:1023E000016841F0020101600068114D00F0020037
:1023F0000590002220212846FEF7AFFF4FF4005041
:1024000000904FF40410CDE9010469460948FEF735
:10241000A7FE202000900120CDE90104694628464E
:102420000394FEF79DFE07B030BD00003038024037
:102430000000024000080240FEE7FEE770477047D8
:10244000FFF7DEB930B593B030216846FDF7FAFEEC
:1024500014210CA8FDF7F6FE1C480024016841F089
:1024600080510160006800F08050119018480168A8
:1024700041F4404101600068022500F440401190A1
:10248000012003901020009506950490CDE90740A7
:102490004FF4A870099004200A900B906846FFF74B
:1024A00027FB08B172B6FEE70F20CDE90C054FF40B
:1024B0008050CDE90E4002210CA81094FFF72EFAAF
:1024C000002801D072B6FEE713B030BD403802409C
:1024D000007000400248016841F4700101607047DB
:1024E00088ED00E001680C3151E8002F22F4907271
:1024F00041E80023002BF5D10168143151E8002F89
:1025000022F0010241E80023002BF5D1016B0129E3
:1025100009D101680C3151E8002F22F0100241E886
:102520000023002BF5D1202180F842100021016307
:102530007047000070B5044600680169E26821F444
:102540004051114301612169A068E2690843616952
:10255000114308432168CA6849F20C639A43024355
:10256000CA6020684169A26921F440711143416148
:1025700031492068884202D03049884202D1FFF7B1
:1025800077FA01E0FFF764FAE26900231921642574
:102590003226B2F5004F626828D0A0FB0101930FEC
:1025A0009200FDF717FE0146B0FBF5F06FF0180240
:1025B000504301EB800006EB0010B0FBF5F000F09B
:1025C000F002B1FBF5F002EB0012B1FBF5F06FF099
:1025D0001803584301EB800006EB0010B0FBF5F048
:1025E00000F00F0021681044886070BDA0FB01015D
:1025F00092185B41FDF7EEFD0146B0FBF5F00201DC
:10260000B1FBF5F06FF01803584301EB800006EBC7
:10261000C000B0FBF5F000F0F80002EB4002B1FBA7
:10262000F5F0584301EB800006EBC000B0FBF5F07D
:1026300000F00700D6E70000001001400014014040
:102640002DE9F843984617460D460446089E24E0B7
:10265000701C22D0FEF786FEA0EB0800B0421AD80C
:10266000CEB12068C168490717D5802D15D0402DFF
:1026700013D00168C94309070FD4016800254068D9
:1026800000902046FFF72EFF0820606484F8405039
:102690000120BDE8F8830320FBE72068006835EAE5
:1026A000000004D00020B842D2D00020F1E7012081
:1026B000F9E7FEE70FB4054B10B503A9044A0298E9
:1026C00000F042F810BC5DF814FB0000B52B0008C8
:1026D000480000200FB47CB50C0009AD01D0611E8C
:1026E00000E00021CDE90001064B6A462946089822
:1026F00000F02AF8002C02D0009A002111707CBC56
:102700005DF814FB9F2B00080907090E002804DB65
:1027100000F1E02080F80014704700F00F0000F195
:10272000E02080F8141D704702E008C8121F08C19D
:10273000002AFAD170477047002001E001C1121F42
:10274000002AFBD1704700002DE9FF4F8DB00F46E6
:102750000546002606E025280BD0DDE90F1290473C
:102760006D1C761C28780028F5D111B03046BDE8E4
:10277000F08F0024A246A1460122E94900E004436B
:1027800015F8013F203B02FA03F00842F7D1287800
:102790002A2810D06FF02F022878A0F130010929E3
:1027A00014D80AEB8A0102EB410144F0020400EB69
:1027B000010A6D1CF0E701CF5FEA000A03D544F47B
:1027C0000054CAF1000A44F002046D1C28782E2837
:1027D00017D115F8010F44F004042A280ED06FF029
:1027E0002F022878A0F1300109290AD809EB8901C4
:1027F00002EB410100EB01096D1CF2E757F8049B65
:102800006D1C28786C280FD006DC4C2817D068285F
:102810000DD06A2814D104E0742810D07A280FD182
:102820000DE044F400140AE044F4801401E044F4A0
:1028300040146978814202D104F580146D1C6D1C2E
:1028400028786E281ED00CDC632830D004DC0028E9
:102850008BD0582811D19FE0642867D069280CD10B
:1028600064E073282DD004DC6F2872D0702804D166
:1028700094E075286ED078286DD0DDE90F1290476E
:10288000761C4BE1C4F30250022806D0032809D07D
:10289000042801CF09D0066040E101CFF117C0E95B
:1028A00000613BE101CF068038E1067036E117F8A0
:1028B000040B8DF8000000208DF80100EB4601208C
:1028C00003E057F804BB4FF0FF3061074FF0000101
:1028D00002D40DE008F10101884649450FDA804530
:1028E000F8DB1BF808100029F4D108E008F1010119
:1028F00088468142FADB1BF808100029F6D1DDE991
:102900000F23AAEB08008146214600F031F930443C
:1029100000EB080604E0DDE90F121BF8010B9047FD
:10292000B8F10108F7D221464846F2E00A21C4F383
:1029300002524FF0000B0891022A04D001CFC117B8
:10294000032A09D00AE0FF1D27F00707F7E8020174
:1029500008E02CE01EE01FE000B2C117042A01D1FC
:1029600040B2C117021E71F1000206DA0023D0EB5B
:10297000030063EB01012D2202E0220504D52B2286
:102980008DF82420012203E0E20701D02022F7E79E
:10299000904653E00A210BE0102109E010214FF08E
:1029A000000B44F004044FF00809089103E00821EB
:1029B0004FF0000B0891C4F30252022A04D001CF59
:1029C0000021032A06D006E0FF1D27F00707F7E8DD
:1029D000020103E080B2042A00D1C0B24FF0000827
:1029E00022072BD52A78702A07D0DDF820C08CF07A
:1029F000100C5CEA0B0C05D00EE040228DF8242070
:102A0000012208E050EA010306D030238DF824307B
:102A10008DF8252002229046089B83F0080353EA94
:102A20000B030BD150EA010201D1620706D5302217
:102A30008DF824204FF00108A9F101092A78582ABD
:102A400004D038A20B9208AA0A920BE03AA2F9E746
:102A50005B46089AFDF7BEFB0B9B9B5C0A9A521ED5
:102A60000A92137050EA0102F2D10A98ADEB00000D
:102A700000F1200B600702D524F4803401E04FF010
:102A80000109D94502DDA9EB0B0000E0002000EBB5
:102A90000B0141440890AAEB010AE00306D4DDE9EA
:102AA0000F232146504600F063F806444FF000091A
:102AB00008E009A911F80900DDE90F12904709F1B2
:102AC0000109761CC145F4DBE0030CD5DDE90F23D9
:102AD0002146504600F04CF8064404E0DDE90F12B0
:102AE00030209047761C0899481E08900029F5DC94
:102AF00008E00A980A990078491C0A91DDE90F124A
:102B00009047761CBBF10001ABF1010BF1DC2146D3
:102B10005046DDE90F2300F019F806446D1C21E64C
:102B200009280100303132333435363738396162A3
:102B30006364656600000000303132333435363767
:102B40003839414243444546000000002DE9F04138
:102B5000044600251E461746880404D405E039467D
:102B60002020B0476D1C641EF9D52846BDE8F081D1
:102B70002DE9F041044600251E469046C80301D5C4
:102B8000302700E02027880404D505E04146384678
:102B9000B0476D1C641EF9D52846BDE8F0814A682F
:102BA000002A06D00A68531C0B6010704868401E4B
:102BB0004860704713B56423012269460248FFF755
:102BC000C7F900981CBD0000FC000020FEF720FEA5
:102BD000FFF738FCFFF7E4FB49484849002501604E
:102BE0004FF4E131C0E901150C21C560C0E9045181
:102BF0008561C561FFF746F908B172B6FEE7404846
:102C00004049543801604049C0E901154FF4804102
:102C1000C0E9035145618561C5610562FEF7A8FB06
:102C200008B172B6FEE7FFF789FB38A0FFF742FD57
:102C3000FFF74AFAFDF772FDFDF7D4FBFDF714FC30
:102C4000FDF7BEFDFDF7F8FDFEF762F8334C207886
:102C5000FEF768F84FF4FA7740F6B836FDF730FC27
:102C6000FDF7D0FBFEF77EFBA168401AB84209D3FE
:102C7000FEF778FBA060FDF7F7FD2078012801D171
:102C8000FEF750F8FEF76EFBE168401AB0420BD336
:102C9000FEF768FBE060FDF76FFD2078012801D0AA
:102CA000042801D1FEF73EF8FDF79EFD6070012873
:102CB00002D002280ED009E02078401CC0B220705B
:102CC000042800D925702078FEF72CF820780328F6
:102CD00003D00FE0FDF73EFDF5E7FEF743FB61682B
:102CE000401AB0F57A7F05D3FEF73CFB6060207890
:102CF000FEF718F80A20FEF721FAAFE7004400407B
:102D0000FC00002000540040A08601005379737439
:102D1000656D2053746172740D0A0000200000205C
:102D200030B580280ED240290CD2012401F00705CD
:102D3000AC40064BC90800EBC110012A195C02D057
:102D4000A143195430BD2143FBE70000440100209A
:102D500028B1FF224FF480610248FDF76CBA0022CF
:102D6000F8E700004401002010B56420FEF7E6F902
:102D7000002000F06DF8202000F0E6F8002000F0C0
:102D8000E3F8B02000F0E0F8C82000F0DDF8002003
:102D900000F0DAF8102000F0D7F8402000F0D4F866
:102DA000FF2000F045F8A12000F0CEF8A62000F0AA
:102DB000CBF8A82000F0C8F83F2000F0C5F8A42008
:102DC00000F0C2F8D32000F0BFF8002000F0BCF8FB
:102DD000D52000F0B9F8F02000F0B6F8D92000F0C6
:102DE000B3F8222000F0B0F8DA2000F0ADF812209D
:102DF00000F0AAF8DB2000F0A7F8202000F0A4F8EB
:102E00008D2000F0A1F8142000F09EF8012000F0C1
:102E10001FF80020FFF79CFF00F026F80348002170
:102E2000018041800121017110BD0000400000209F
:102E300010B50446812000F087F82046BDE8104018
:102E400000F082B8014A1080518070474000002095
:102E5000044910B1AF20012201E0AE2000224A71E6
:102E600000F072B84000002070B50C4D002400BF87
:102E700004F1B000C0B200F067F8002000F064F880
:102E8000102000F061F805EBC410802100F06EF80E
:102E9000641CE4B2082CEBD370BD00004401002098
:102EA0002DE9FF4F93460098A0F12008B8F15F0F7D
:102EB00010D213B113F8086000E0CEB221480288A6
:102EC0003244802A06D882464088C1F30727384416
:102ED000402803D9002004B0BDE8F08F002525E08C
:102EE00018FB07513BF8119000241CE009FA04F08C
:102EF000000409D59AF802109AF8000029442044E9
:102F0000C9B2C0B20D9A0BE00D98C0B15FF00002DB
:102F10009AF802109AF8000029442044C9B2C0B2BD
:102F2000FFF7FEFE641CB442E0D36D1CAF42D7D85D
:102F3000BAF800103144AAF800100098CBE701223B
:102F4000E6E700004000002001B584B001214FF009
:102F5000FF3204A88DE807000B46002278210248C2
:102F6000FEF780FB05B000BDA80000200EB54FF0B5
:102F7000FF3289B28DE80700012340227821024800
:102F8000FEF770FB0EBD0000A80000202DE9F841FF
:102F90000E46174698460446079D0CE043463A46BF
:102FA00031460095FFF77CFF2178884202D0C8B2F5
:102FB000BDE8F881641C20780028EFD1C0B2F7E7A3
:102FC0002003B004D0070000000000000000010250
:102FD00003040607080900000000010203040000C2
:102FE00000000000000000000000000000000000E1
:102FF0000000001000100010001000100010000071
:103000000010000000000028002800280000000038
:103010000000000000000000000000240024007CEC
:1030200000240048007C00480048000000000038F0
:1030300000540050003800140054005400380010B0
:1030400000000020005400580030002800540014F4
:1030500000080000000000100028002800100034C4
:10306000004800480034000000000010001000106C
:103070000000000000000000000000000000000848
:103080000010002000200020002000200020001060
:1030900000080020001000080008000800080008D0
:1030A0000008001000200010003800100028000068
:1030B0000000000000000000000000000000001000
:1030C0000010007C00100010000000000000000054
:1030D00000000000000000000000000000100010D0
:1030E0000010000000000000000000000038000098
:1030F00000000000000000000000000000000000D0
:10310000000000000010000000000008000800108F
:103110000010001000100020002000000000003807
:1031200000440044005400440044004400380000BF
:1031300000000010003000500010001000100010BF
:1031400000100000000000380044004400040008A3
:1031500000100020007C0000000000380044000443
:1031600000180004000400440038000000000008BB
:103170000018002800280048007C00080008000013
:103180000000007C0040004000780004000400447F
:10319000003800000000003800440040007800447F
:1031A00000440044003800000000007C00040008D7
:1031B0000010001000200020002000000000003857
:1031C000004400440038004400440044003800003B
:1031D00000000038004400440044003C0004004467
:1031E0000038000000000000000000100000000097
:1031F00000000000001000000000000000000000BF
:10320000001000000000000000100010001000007E
:103210000000000C003000400030000C00000000F6
:103220000000000000000000007C0000007C0000A6
:103230000000000000000000000000600018000412
:103240000018006000000000000000380044000486
:1032500000080010001000000010000000000038FE
:103260000044004C0054005C004000400038000066
:10327000000000100028002800280028007C0044DE
:10328000004400000000007800440044007800443E
:103290000044004400780000000000380044004072
:1032A0000040004000400044003800000000007072
:1032B00000480044004400440044004800700000FE
:1032C0000000007C00400040007C004000400040C6
:1032D000007C00000000007C0040004000780040BE
:1032E0000040004000400000000000380044004062
:1032F0000040005C0044004400380000000000442E
:1033000000440044007C00440044004400440000A9
:103310000000003800100010001000100010001015
:103320000038000000000004000400040004000451
:103330000004004400380000000000440048005031
:1033400000600050004800480044000000000040B9
:10335000004000400040004000400040007C000071
:1033600000000044006C006C005400440044004421
:103370000044000000000044006400640054005455
:10338000004C004C004400000000003800440044A1
:10339000004400440044004400380000000000786D
:1033A0000044004400440078004000400040000019
:1033B000000000380044004400440044004400542D
:1033C0000038000400000078004400440044007805
:1033D000004800480044000000000038004400405D
:1033E0000030000800040044003800000000007CA9
:1033F000001000100010001000100010001000005D
:1034000000000044004400440044004400440044E0
:103410000038000000000044004400440028002858
:103420000028001000100000000000440044005478
:1034300000540054006C00280028000000000044E4
:103440000028002800100010002800280044000078
:103450000000004400440028002800100010001064
:10346000001000000000007C0004000800100010A4
:1034700000200040007C0000000000180010001038
:1034800000100010001000100010001000180020A4
:1034900000200010001000100010000800080000BC
:1034A000000000300010001000100010001000108C
:1034B0000010001000300010002800280044000018
:1034C00000000000000000000000000000000000FC
:1034D00000000000000000000000000000FE0020CE
:1034E00000100000000000000000000000000000CC
:1034F00000000000000000380044003C0044004C84
:103500000034000000000040004000580064004407
:103510000044006400580000000000000000003873
:103520000044004000400044003800000000000457
:1035300000040034004C00440044004C00340000FF
:1035400000000000000000380044007C00400044FF
:10355000003800000000000C0010007C001000107B
:1035600000100010001000000000000000000034F7
:10357000004C00440044004C00340004007800403B
:10358000004000580064004400440044004400002F
:10359000000000100000007000100010001000106B
:1035A000001000000000001000000070001000106B
:1035B000001000100010001000E000400040004823
:1035C00000500060005000480044000000000070FF
:1035D000001000100010001000100010001000007B
:1035E0000000000000000078005400540054005413
:1035F0000054000000000000000000580064004477
:1036000000440044004400000000000000000038B6
:103610000044004400440044003800000000000062
:10362000000000580064004400440064005800405A
:103630000040000000000034004C00440044004CF6
:103640000034000400040000000000580064004042
:103650000040004000400000000000000000003872
:103660000044003000080044003800000000002042
:10367000002000780020002000200020001800001A
:103680000000000000000044004400440044004CDE
:103690000034000000000000000000440044002846
:1036A0000028002800100000000000000000005466
:1036B00000540054006C00280028000000000000A6
:1036C0000000004400280010001000280044000002
:1036D0000000000000000044004400280028001002
:1036E00000100010006000000000007C00080010C6
:1036F00000200040007C00000000001800100010B6
:103700000010002000200010001000100018001011
:103710000010001000100010001000100010001029
:103720000010003000100010001000080008001009
:103730000010001000300000000000000074004C79
:10374000000000000000000000000000070A000068
:10375000DE2F00080000000078370008000000207D
:103760004C00000028270008C43700084C00002047
:10377000FC080000382700080101000000000000DC
:103780000000000000000000000100000000000038
:103790000000000000000000000000000000000029
:1037A0000000000000000000010000001000000008
:1037B000000000000024F4000000000000000000F1
:0437C0000000000005
:040000050800019955
:00000001FF
